{
  "contractName": "Recipes",
  "abi": [
    {
      "inputs": [],
      "payable": false,
      "stateMutability": "nonpayable",
      "type": "constructor"
    },
    {
      "anonymous": false,
      "inputs": [
        {
          "indexed": true,
          "internalType": "address",
          "name": "owner",
          "type": "address"
        },
        {
          "indexed": true,
          "internalType": "address",
          "name": "approved",
          "type": "address"
        },
        {
          "indexed": true,
          "internalType": "uint256",
          "name": "tokenId",
          "type": "uint256"
        }
      ],
      "name": "Approval",
      "type": "event"
    },
    {
      "anonymous": false,
      "inputs": [
        {
          "indexed": true,
          "internalType": "address",
          "name": "owner",
          "type": "address"
        },
        {
          "indexed": true,
          "internalType": "address",
          "name": "operator",
          "type": "address"
        },
        {
          "indexed": false,
          "internalType": "bool",
          "name": "approved",
          "type": "bool"
        }
      ],
      "name": "ApprovalForAll",
      "type": "event"
    },
    {
      "anonymous": false,
      "inputs": [
        {
          "indexed": true,
          "internalType": "address",
          "name": "from",
          "type": "address"
        },
        {
          "indexed": true,
          "internalType": "address",
          "name": "to",
          "type": "address"
        },
        {
          "indexed": true,
          "internalType": "uint256",
          "name": "tokenId",
          "type": "uint256"
        }
      ],
      "name": "Transfer",
      "type": "event"
    },
    {
      "anonymous": false,
      "inputs": [],
      "name": "addedRecipe",
      "type": "event"
    },
    {
      "constant": false,
      "inputs": [
        {
          "internalType": "address",
          "name": "to",
          "type": "address"
        },
        {
          "internalType": "uint256",
          "name": "tokenId",
          "type": "uint256"
        }
      ],
      "name": "approve",
      "outputs": [],
      "payable": false,
      "stateMutability": "nonpayable",
      "type": "function"
    },
    {
      "constant": true,
      "inputs": [
        {
          "internalType": "address",
          "name": "owner",
          "type": "address"
        }
      ],
      "name": "balanceOf",
      "outputs": [
        {
          "internalType": "uint256",
          "name": "",
          "type": "uint256"
        }
      ],
      "payable": false,
      "stateMutability": "view",
      "type": "function"
    },
    {
      "constant": true,
      "inputs": [
        {
          "internalType": "uint256",
          "name": "tokenId",
          "type": "uint256"
        }
      ],
      "name": "getApproved",
      "outputs": [
        {
          "internalType": "address",
          "name": "",
          "type": "address"
        }
      ],
      "payable": false,
      "stateMutability": "view",
      "type": "function"
    },
    {
      "constant": true,
      "inputs": [
        {
          "internalType": "address",
          "name": "owner",
          "type": "address"
        },
        {
          "internalType": "address",
          "name": "operator",
          "type": "address"
        }
      ],
      "name": "isApprovedForAll",
      "outputs": [
        {
          "internalType": "bool",
          "name": "",
          "type": "bool"
        }
      ],
      "payable": false,
      "stateMutability": "view",
      "type": "function"
    },
    {
      "constant": true,
      "inputs": [],
      "name": "name",
      "outputs": [
        {
          "internalType": "string",
          "name": "",
          "type": "string"
        }
      ],
      "payable": false,
      "stateMutability": "view",
      "type": "function"
    },
    {
      "constant": true,
      "inputs": [
        {
          "internalType": "uint256",
          "name": "tokenId",
          "type": "uint256"
        }
      ],
      "name": "ownerOf",
      "outputs": [
        {
          "internalType": "address",
          "name": "",
          "type": "address"
        }
      ],
      "payable": false,
      "stateMutability": "view",
      "type": "function"
    },
    {
      "constant": true,
      "inputs": [
        {
          "internalType": "uint256",
          "name": "",
          "type": "uint256"
        }
      ],
      "name": "recipes",
      "outputs": [
        {
          "internalType": "string",
          "name": "nombre",
          "type": "string"
        },
        {
          "internalType": "string",
          "name": "dosis",
          "type": "string"
        },
        {
          "internalType": "string",
          "name": "unidad",
          "type": "string"
        },
        {
          "internalType": "string",
          "name": "frecuencia",
          "type": "string"
        },
        {
          "internalType": "string",
          "name": "lapso",
          "type": "string"
        },
        {
          "internalType": "string",
          "name": "descripcion",
          "type": "string"
        },
        {
          "internalType": "enum Recipes.RecipeType",
          "name": "tipo",
          "type": "uint8"
        },
        {
          "internalType": "string",
          "name": "id_creador",
          "type": "string"
        }
      ],
      "payable": false,
      "stateMutability": "view",
      "type": "function"
    },
    {
      "constant": false,
      "inputs": [
        {
          "internalType": "address",
          "name": "from",
          "type": "address"
        },
        {
          "internalType": "address",
          "name": "to",
          "type": "address"
        },
        {
          "internalType": "uint256",
          "name": "tokenId",
          "type": "uint256"
        }
      ],
      "name": "safeTransferFrom",
      "outputs": [],
      "payable": false,
      "stateMutability": "nonpayable",
      "type": "function"
    },
    {
      "constant": false,
      "inputs": [
        {
          "internalType": "address",
          "name": "from",
          "type": "address"
        },
        {
          "internalType": "address",
          "name": "to",
          "type": "address"
        },
        {
          "internalType": "uint256",
          "name": "tokenId",
          "type": "uint256"
        },
        {
          "internalType": "bytes",
          "name": "_data",
          "type": "bytes"
        }
      ],
      "name": "safeTransferFrom",
      "outputs": [],
      "payable": false,
      "stateMutability": "nonpayable",
      "type": "function"
    },
    {
      "constant": false,
      "inputs": [
        {
          "internalType": "address",
          "name": "to",
          "type": "address"
        },
        {
          "internalType": "bool",
          "name": "approved",
          "type": "bool"
        }
      ],
      "name": "setApprovalForAll",
      "outputs": [],
      "payable": false,
      "stateMutability": "nonpayable",
      "type": "function"
    },
    {
      "constant": true,
      "inputs": [
        {
          "internalType": "bytes4",
          "name": "interfaceId",
          "type": "bytes4"
        }
      ],
      "name": "supportsInterface",
      "outputs": [
        {
          "internalType": "bool",
          "name": "",
          "type": "bool"
        }
      ],
      "payable": false,
      "stateMutability": "view",
      "type": "function"
    },
    {
      "constant": true,
      "inputs": [],
      "name": "symbol",
      "outputs": [
        {
          "internalType": "string",
          "name": "",
          "type": "string"
        }
      ],
      "payable": false,
      "stateMutability": "view",
      "type": "function"
    },
    {
      "constant": true,
      "inputs": [
        {
          "internalType": "uint256",
          "name": "index",
          "type": "uint256"
        }
      ],
      "name": "tokenByIndex",
      "outputs": [
        {
          "internalType": "uint256",
          "name": "",
          "type": "uint256"
        }
      ],
      "payable": false,
      "stateMutability": "view",
      "type": "function"
    },
    {
      "constant": true,
      "inputs": [
        {
          "internalType": "address",
          "name": "owner",
          "type": "address"
        },
        {
          "internalType": "uint256",
          "name": "index",
          "type": "uint256"
        }
      ],
      "name": "tokenOfOwnerByIndex",
      "outputs": [
        {
          "internalType": "uint256",
          "name": "",
          "type": "uint256"
        }
      ],
      "payable": false,
      "stateMutability": "view",
      "type": "function"
    },
    {
      "constant": true,
      "inputs": [
        {
          "internalType": "uint256",
          "name": "tokenId",
          "type": "uint256"
        }
      ],
      "name": "tokenURI",
      "outputs": [
        {
          "internalType": "string",
          "name": "",
          "type": "string"
        }
      ],
      "payable": false,
      "stateMutability": "view",
      "type": "function"
    },
    {
      "constant": true,
      "inputs": [],
      "name": "totalSupply",
      "outputs": [
        {
          "internalType": "uint256",
          "name": "",
          "type": "uint256"
        }
      ],
      "payable": false,
      "stateMutability": "view",
      "type": "function"
    },
    {
      "constant": false,
      "inputs": [
        {
          "internalType": "address",
          "name": "from",
          "type": "address"
        },
        {
          "internalType": "address",
          "name": "to",
          "type": "address"
        },
        {
          "internalType": "uint256",
          "name": "tokenId",
          "type": "uint256"
        }
      ],
      "name": "transferFrom",
      "outputs": [],
      "payable": false,
      "stateMutability": "nonpayable",
      "type": "function"
    },
    {
      "constant": true,
      "inputs": [
        {
          "internalType": "uint256",
          "name": "pos",
          "type": "uint256"
        }
      ],
      "name": "getRecipe",
      "outputs": [
        {
          "internalType": "string[]",
          "name": "",
          "type": "string[]"
        }
      ],
      "payable": false,
      "stateMutability": "view",
      "type": "function"
    },
    {
      "constant": false,
      "inputs": [
        {
          "internalType": "string",
          "name": "_nombre",
          "type": "string"
        },
        {
          "internalType": "string",
          "name": "_dosis",
          "type": "string"
        },
        {
          "internalType": "string",
          "name": "_unidad",
          "type": "string"
        },
        {
          "internalType": "string",
          "name": "_frecuencia",
          "type": "string"
        },
        {
          "internalType": "string",
          "name": "_lapso",
          "type": "string"
        },
        {
          "internalType": "string",
          "name": "_descripcion",
          "type": "string"
        },
        {
          "internalType": "enum Recipes.RecipeType",
          "name": "_tipo",
          "type": "uint8"
        },
        {
          "internalType": "string",
          "name": "_idCreador",
          "type": "string"
        }
      ],
      "name": "mint",
      "outputs": [],
      "payable": false,
      "stateMutability": "nonpayable",
      "type": "function"
    }
  ],
  "bytecode": "0x60806040523480156200001157600080fd5b506040518060400160405280600681526020017f52656369706500000000000000000000000000000000000000000000000000008152506040518060400160405280600681526020017f52454349504500000000000000000000000000000000000000000000000000008152508181620000986301ffc9a760e01b6200011c60201b60201c565b620000b06380ac58cd60e01b6200011c60201b60201c565b620000c863780e9d6360e01b6200011c60201b60201c565b8160099080519060200190620000e0929190620001f4565b5080600a9080519060200190620000f9929190620001f4565b5062000112635b5e139f60e01b6200011c60201b60201c565b5050505062000318565b63ffffffff60e01b817bffffffffffffffffffffffffffffffffffffffffffffffffffffffff1916141562000188576040517f08c379a00000000000000000000000000000000000000000000000000000000081526004016200017f90620002e5565b60405180910390fd5b6001600080837bffffffffffffffffffffffffffffffffffffffffffffffffffffffff19167bffffffffffffffffffffffffffffffffffffffffffffffffffffffff1916815260200190815260200160002060006101000a81548160ff02191690831515021790555050565b828054600181600116156101000203166002900490600052602060002090601f016020900481019282601f106200023757805160ff191683800117855562000268565b8280016001018555821562000268579182015b82811115620002675782518255916020019190600101906200024a565b5b5090506200027791906200027b565b5090565b620002a091905b808211156200029c57600081600090555060010162000282565b5090565b90565b6000620002b2601c8362000307565b91507f4552433136353a20696e76616c696420696e74657266616365206964000000006000830152602082019050919050565b600060208201905081810360008301526200030081620002a3565b9050919050565b600082825260208201905092915050565b613a5c80620003286000396000f3fe608060405234801561001057600080fd5b50600436106101215760003560e01c80634f6ccce7116100ad578063b88d4fde11610071578063b88d4fde14610347578063c87b56dd14610363578063d7e085d914610393578063e985e9c5146103af578063f8d12a41146103df57610121565b80634f6ccce71461027d5780636352211e146102ad57806370a08231146102dd57806395d89b411461030d578063a22cb4651461032b57610121565b806318160ddd116100f457806318160ddd146101c057806323b872dd146101de5780632f745c59146101fa57806342842e0e1461022a578063443c227c1461024657610121565b806301ffc9a71461012657806306fdde0314610156578063081812fc14610174578063095ea7b3146101a4575b600080fd5b610140600480360361013b9190810190612a01565b61040f565b60405161014d9190613445565b60405180910390f35b61015e610476565b60405161016b9190613460565b60405180910390f35b61018e60048036036101899190810190612bad565b610518565b60405161019b91906133bc565b60405180910390f35b6101be60048036036101b991908101906129c5565b61059d565b005b6101c861074a565b6040516101d59190613751565b60405180910390f35b6101f860048036036101f391908101906128bf565b610757565b005b610214600480360361020f91908101906129c5565b6107b0565b6040516102219190613751565b60405180910390f35b610244600480360361023f91908101906128bf565b610859565b005b610260600480360361025b9190810190612bad565b610879565b604051610274989796959493929190613482565b60405180910390f35b61029760048036036102929190810190612bad565b610d03565b6040516102a49190613751565b60405180910390f35b6102c760048036036102c29190810190612bad565b610d6d565b6040516102d491906133bc565b60405180910390f35b6102f760048036036102f2919081019061285a565b610e1f565b6040516103049190613751565b60405180910390f35b610315610ede565b6040516103229190613460565b60405180910390f35b61034560048036036103409190810190612989565b610f80565b005b610361600480360361035c919081019061290e565b6110ec565b005b61037d60048036036103789190810190612bad565b611148565b60405161038a9190613460565b60405180910390f35b6103ad60048036036103a89190810190612a53565b611245565b005b6103c960048036036103c49190810190612883565b6113f2565b6040516103d69190613445565b60405180910390f35b6103f960048036036103f49190810190612bad565b611486565b6040516104069190613423565b60405180910390f35b6000806000837bffffffffffffffffffffffffffffffffffffffffffffffffffffffff19167bffffffffffffffffffffffffffffffffffffffffffffffffffffffff1916815260200190815260200160002060009054906101000a900460ff169050919050565b606060098054600181600116156101000203166002900480601f01602080910402602001604051908101604052809291908181526020018280546001816001161561010002031660029004801561050e5780601f106104e35761010080835404028352916020019161050e565b820191906000526020600020905b8154815290600101906020018083116104f157829003601f168201915b5050505050905090565b600061052382611abf565b610562576040517f08c379a000000000000000000000000000000000000000000000000000000000815260040161055990613691565b60405180910390fd5b6002600083815260200190815260200160002060009054906101000a900473ffffffffffffffffffffffffffffffffffffffff169050919050565b60006105a882610d6d565b90508073ffffffffffffffffffffffffffffffffffffffff168373ffffffffffffffffffffffffffffffffffffffff161415610619576040517f08c379a0000000000000000000000000000000000000000000000000000000008152600401610610906136f1565b60405180910390fd5b8073ffffffffffffffffffffffffffffffffffffffff163373ffffffffffffffffffffffffffffffffffffffff161480610659575061065881336113f2565b5b610698576040517f08c379a000000000000000000000000000000000000000000000000000000000815260040161068f90613611565b60405180910390fd5b826002600084815260200190815260200160002060006101000a81548173ffffffffffffffffffffffffffffffffffffffff021916908373ffffffffffffffffffffffffffffffffffffffff160217905550818373ffffffffffffffffffffffffffffffffffffffff168273ffffffffffffffffffffffffffffffffffffffff167f8c5be1e5ebec7d5bd14f71427d1e84f3dd0314c0f7b2291e5b200ac8c7c3b92560405160405180910390a4505050565b6000600780549050905090565b6107613382611b31565b6107a0576040517f08c379a000000000000000000000000000000000000000000000000000000000815260040161079790613711565b60405180910390fd5b6107ab838383611c0f565b505050565b60006107bb83610e1f565b82106107fc576040517f08c379a00000000000000000000000000000000000000000000000000000000081526004016107f390613531565b60405180910390fd5b600560008473ffffffffffffffffffffffffffffffffffffffff1673ffffffffffffffffffffffffffffffffffffffff168152602001908152602001600020828154811061084657fe5b9060005260206000200154905092915050565b610874838383604051806020016040528060008152506110ec565b505050565b600c818154811061088657fe5b9060005260206000209060080201600091509050806000018054600181600116156101000203166002900480601f0160208091040260200160405190810160405280929190818152602001828054600181600116156101000203166002900480156109325780601f1061090757610100808354040283529160200191610932565b820191906000526020600020905b81548152906001019060200180831161091557829003601f168201915b505050505090806001018054600181600116156101000203166002900480601f0160208091040260200160405190810160405280929190818152602001828054600181600116156101000203166002900480156109d05780601f106109a5576101008083540402835291602001916109d0565b820191906000526020600020905b8154815290600101906020018083116109b357829003601f168201915b505050505090806002018054600181600116156101000203166002900480601f016020809104026020016040519081016040528092919081815260200182805460018160011615610100020316600290048015610a6e5780601f10610a4357610100808354040283529160200191610a6e565b820191906000526020600020905b815481529060010190602001808311610a5157829003601f168201915b505050505090806003018054600181600116156101000203166002900480601f016020809104026020016040519081016040528092919081815260200182805460018160011615610100020316600290048015610b0c5780601f10610ae157610100808354040283529160200191610b0c565b820191906000526020600020905b815481529060010190602001808311610aef57829003601f168201915b505050505090806004018054600181600116156101000203166002900480601f016020809104026020016040519081016040528092919081815260200182805460018160011615610100020316600290048015610baa5780601f10610b7f57610100808354040283529160200191610baa565b820191906000526020600020905b815481529060010190602001808311610b8d57829003601f168201915b505050505090806005018054600181600116156101000203166002900480601f016020809104026020016040519081016040528092919081815260200182805460018160011615610100020316600290048015610c485780601f10610c1d57610100808354040283529160200191610c48565b820191906000526020600020905b815481529060010190602001808311610c2b57829003601f168201915b5050505050908060060160009054906101000a900460ff1690806007018054600181600116156101000203166002900480601f016020809104026020016040519081016040528092919081815260200182805460018160011615610100020316600290048015610cf95780601f10610cce57610100808354040283529160200191610cf9565b820191906000526020600020905b815481529060010190602001808311610cdc57829003601f168201915b5050505050905088565b6000610d0d61074a565b8210610d4e576040517f08c379a0000000000000000000000000000000000000000000000000000000008152600401610d4590613731565b60405180910390fd5b60078281548110610d5b57fe5b90600052602060002001549050919050565b6000806001600084815260200190815260200160002060009054906101000a900473ffffffffffffffffffffffffffffffffffffffff169050600073ffffffffffffffffffffffffffffffffffffffff168173ffffffffffffffffffffffffffffffffffffffff161415610e16576040517f08c379a0000000000000000000000000000000000000000000000000000000008152600401610e0d90613651565b60405180910390fd5b80915050919050565b60008073ffffffffffffffffffffffffffffffffffffffff168273ffffffffffffffffffffffffffffffffffffffff161415610e90576040517f08c379a0000000000000000000000000000000000000000000000000000000008152600401610e8790613631565b60405180910390fd5b610ed7600360008473ffffffffffffffffffffffffffffffffffffffff1673ffffffffffffffffffffffffffffffffffffffff168152602001908152602001600020611c33565b9050919050565b6060600a8054600181600116156101000203166002900480601f016020809104026020016040519081016040528092919081815260200182805460018160011615610100020316600290048015610f765780601f10610f4b57610100808354040283529160200191610f76565b820191906000526020600020905b815481529060010190602001808311610f5957829003601f168201915b5050505050905090565b3373ffffffffffffffffffffffffffffffffffffffff168273ffffffffffffffffffffffffffffffffffffffff161415610fef576040517f08c379a0000000000000000000000000000000000000000000000000000000008152600401610fe6906135b1565b60405180910390fd5b80600460003373ffffffffffffffffffffffffffffffffffffffff1673ffffffffffffffffffffffffffffffffffffffff16815260200190815260200160002060008473ffffffffffffffffffffffffffffffffffffffff1673ffffffffffffffffffffffffffffffffffffffff16815260200190815260200160002060006101000a81548160ff0219169083151502179055508173ffffffffffffffffffffffffffffffffffffffff163373ffffffffffffffffffffffffffffffffffffffff167f17307eab39ab6107e8899845ad3d59bd9653f200f220920489ca2b5937696c31836040516110e09190613445565b60405180910390a35050565b6110f7848484610757565b61110384848484611c41565b611142576040517f08c379a000000000000000000000000000000000000000000000000000000000815260040161113990613551565b60405180910390fd5b50505050565b606061115382611abf565b611192576040517f08c379a0000000000000000000000000000000000000000000000000000000008152600401611189906136d1565b60405180910390fd5b600b60008381526020019081526020016000208054600181600116156101000203166002900480601f0160208091040260200160405190810160405280929190818152602001828054600181600116156101000203166002900480156112395780601f1061120e57610100808354040283529160200191611239565b820191906000526020600020905b81548152906001019060200180831161121c57829003601f168201915b50505050509050919050565b6000600c6040518061010001604052808b81526020018a815260200189815260200188815260200187815260200186815260200185600281111561128557fe5b8152602001848152509080600181540180825580915050906001820390600052602060002090600802016000909192909190915060008201518160000190805190602001906112d5929190612663565b5060208201518160010190805190602001906112f2929190612663565b50604082015181600201908051906020019061130f929190612663565b50606082015181600301908051906020019061132c929190612663565b506080820151816004019080519060200190611349929190612663565b5060a0820151816005019080519060200190611366929190612663565b5060c08201518160060160006101000a81548160ff0219169083600281111561138b57fe5b021790555060e08201518160070190805190602001906113ac929190612663565b50505090506113bb3382611d58565b7f84f0da0429e9dedfaa297aef09bffb3989efec06000a57e7d1509bb7e697218f60405160405180910390a1505050505050505050565b6000600460008473ffffffffffffffffffffffffffffffffffffffff1673ffffffffffffffffffffffffffffffffffffffff16815260200190815260200160002060008373ffffffffffffffffffffffffffffffffffffffff1673ffffffffffffffffffffffffffffffffffffffff16815260200190815260200160002060009054906101000a900460ff16905092915050565b60608060086040519080825280602002602001820160405280156114be57816020015b60608152602001906001900390816114a95790505b509050600c83815481106114ce57fe5b90600052602060002090600802016000018054600181600116156101000203166002900480601f0160208091040260200160405190810160405280929190818152602001828054600181600116156101000203166002900480156115735780601f1061154857610100808354040283529160200191611573565b820191906000526020600020905b81548152906001019060200180831161155657829003601f168201915b50505050508160008151811061158557fe5b6020026020010181905250600c838154811061159d57fe5b90600052602060002090600802016001018054600181600116156101000203166002900480601f0160208091040260200160405190810160405280929190818152602001828054600181600116156101000203166002900480156116425780601f1061161757610100808354040283529160200191611642565b820191906000526020600020905b81548152906001019060200180831161162557829003601f168201915b50505050508160018151811061165457fe5b6020026020010181905250600c838154811061166c57fe5b90600052602060002090600802016002018054600181600116156101000203166002900480601f0160208091040260200160405190810160405280929190818152602001828054600181600116156101000203166002900480156117115780601f106116e657610100808354040283529160200191611711565b820191906000526020600020905b8154815290600101906020018083116116f457829003601f168201915b50505050508160028151811061172357fe5b6020026020010181905250600c838154811061173b57fe5b90600052602060002090600802016003018054600181600116156101000203166002900480601f0160208091040260200160405190810160405280929190818152602001828054600181600116156101000203166002900480156117e05780601f106117b5576101008083540402835291602001916117e0565b820191906000526020600020905b8154815290600101906020018083116117c357829003601f168201915b5050505050816003815181106117f257fe5b6020026020010181905250600c838154811061180a57fe5b90600052602060002090600802016004018054600181600116156101000203166002900480601f0160208091040260200160405190810160405280929190818152602001828054600181600116156101000203166002900480156118af5780601f10611884576101008083540402835291602001916118af565b820191906000526020600020905b81548152906001019060200180831161189257829003601f168201915b5050505050816004815181106118c157fe5b6020026020010181905250600c83815481106118d957fe5b90600052602060002090600802016005018054600181600116156101000203166002900480601f01602080910402602001604051908101604052809291908181526020018280546001816001161561010002031660029004801561197e5780601f106119535761010080835404028352916020019161197e565b820191906000526020600020905b81548152906001019060200180831161196157829003601f168201915b50505050508160058151811061199057fe5b60200260200101819052506119cf600c84815481106119ab57fe5b906000526020600020906008020160060160009054906101000a900460ff16611d79565b816006815181106119dc57fe5b6020026020010181905250600c83815481106119f457fe5b90600052602060002090600802016007018054600181600116156101000203166002900480601f016020809104026020016040519081016040528092919081815260200182805460018160011615610100020316600290048015611a995780601f10611a6e57610100808354040283529160200191611a99565b820191906000526020600020905b815481529060010190602001808311611a7c57829003601f168201915b505050505081600781518110611aab57fe5b602002602001018190525080915050919050565b6000806001600084815260200190815260200160002060009054906101000a900473ffffffffffffffffffffffffffffffffffffffff169050600073ffffffffffffffffffffffffffffffffffffffff168173ffffffffffffffffffffffffffffffffffffffff161415915050919050565b6000611b3c82611abf565b611b7b576040517f08c379a0000000000000000000000000000000000000000000000000000000008152600401611b72906135f1565b60405180910390fd5b6000611b8683610d6d565b90508073ffffffffffffffffffffffffffffffffffffffff168473ffffffffffffffffffffffffffffffffffffffff161480611bf557508373ffffffffffffffffffffffffffffffffffffffff16611bdd84610518565b73ffffffffffffffffffffffffffffffffffffffff16145b80611c065750611c0581856113f2565b5b91505092915050565b611c1a838383611e71565b611c2483826120a0565b611c2e828261223e565b505050565b600081600001549050919050565b6000611c628473ffffffffffffffffffffffffffffffffffffffff16612305565b611c6f5760019050611d50565b60008473ffffffffffffffffffffffffffffffffffffffff1663150b7a02338887876040518563ffffffff1660e01b8152600401611cb094939291906133d7565b602060405180830381600087803b158015611cca57600080fd5b505af1158015611cde573d6000803e3d6000fd5b505050506040513d601f19601f82011682018060405250611d029190810190612a2a565b905063150b7a0260e01b7bffffffffffffffffffffffffffffffffffffffffffffffffffffffff1916817bffffffffffffffffffffffffffffffffffffffffffffffffffffffff1916149150505b949350505050565b611d628282612318565b611d6c828261223e565b611d75816124ca565b5050565b606060006002811115611d8857fe5b826002811115611d9457fe5b1415611dd7576040518060400160405280600181526020017f30000000000000000000000000000000000000000000000000000000000000008152509050611e6c565b60016002811115611de457fe5b826002811115611df057fe5b1415611e33576040518060400160405280600181526020017f31000000000000000000000000000000000000000000000000000000000000008152509050611e6c565b6040518060400160405280600181526020017f320000000000000000000000000000000000000000000000000000000000000081525090505b919050565b8273ffffffffffffffffffffffffffffffffffffffff16611e9182610d6d565b73ffffffffffffffffffffffffffffffffffffffff1614611ee7576040517f08c379a0000000000000000000000000000000000000000000000000000000008152600401611ede906136b1565b60405180910390fd5b600073ffffffffffffffffffffffffffffffffffffffff168273ffffffffffffffffffffffffffffffffffffffff161415611f57576040517f08c379a0000000000000000000000000000000000000000000000000000000008152600401611f4e90613591565b60405180910390fd5b611f6081612516565b611fa7600360008573ffffffffffffffffffffffffffffffffffffffff1673ffffffffffffffffffffffffffffffffffffffff1681526020019081526020016000206125d4565b611fee600360008473ffffffffffffffffffffffffffffffffffffffff1673ffffffffffffffffffffffffffffffffffffffff1681526020019081526020016000206125f7565b816001600083815260200190815260200160002060006101000a81548173ffffffffffffffffffffffffffffffffffffffff021916908373ffffffffffffffffffffffffffffffffffffffff160217905550808273ffffffffffffffffffffffffffffffffffffffff168473ffffffffffffffffffffffffffffffffffffffff167fddf252ad1be2c89b69c2b068fc378daa952ba7f163c4a11628f55a4df523b3ef60405160405180910390a4505050565b60006120f86001600560008673ffffffffffffffffffffffffffffffffffffffff1673ffffffffffffffffffffffffffffffffffffffff1681526020019081526020016000208054905061260d90919063ffffffff16565b90506000600660008481526020019081526020016000205490508181146121e5576000600560008673ffffffffffffffffffffffffffffffffffffffff1673ffffffffffffffffffffffffffffffffffffffff168152602001908152602001600020838154811061216557fe5b9060005260206000200154905080600560008773ffffffffffffffffffffffffffffffffffffffff1673ffffffffffffffffffffffffffffffffffffffff16815260200190815260200160002083815481106121bd57fe5b9060005260206000200181905550816006600083815260200190815260200160002081905550505b600560008573ffffffffffffffffffffffffffffffffffffffff1673ffffffffffffffffffffffffffffffffffffffff16815260200190815260200160002080548091906001900361223791906126e3565b5050505050565b600560008373ffffffffffffffffffffffffffffffffffffffff1673ffffffffffffffffffffffffffffffffffffffff168152602001908152602001600020805490506006600083815260200190815260200160002081905550600560008373ffffffffffffffffffffffffffffffffffffffff1673ffffffffffffffffffffffffffffffffffffffff1681526020019081526020016000208190806001815401808255809150509060018203906000526020600020016000909192909190915055505050565b600080823b905060008111915050919050565b600073ffffffffffffffffffffffffffffffffffffffff168273ffffffffffffffffffffffffffffffffffffffff161415612388576040517f08c379a000000000000000000000000000000000000000000000000000000000815260040161237f90613671565b60405180910390fd5b61239181611abf565b156123d1576040517f08c379a00000000000000000000000000000000000000000000000000000000081526004016123c890613571565b60405180910390fd5b816001600083815260200190815260200160002060006101000a81548173ffffffffffffffffffffffffffffffffffffffff021916908373ffffffffffffffffffffffffffffffffffffffff16021790555061246a600360008473ffffffffffffffffffffffffffffffffffffffff1673ffffffffffffffffffffffffffffffffffffffff1681526020019081526020016000206125f7565b808273ffffffffffffffffffffffffffffffffffffffff16600073ffffffffffffffffffffffffffffffffffffffff167fddf252ad1be2c89b69c2b068fc378daa952ba7f163c4a11628f55a4df523b3ef60405160405180910390a45050565b6007805490506008600083815260200190815260200160002081905550600781908060018154018082558091505090600182039060005260206000200160009091929091909150555050565b600073ffffffffffffffffffffffffffffffffffffffff166002600083815260200190815260200160002060009054906101000a900473ffffffffffffffffffffffffffffffffffffffff1673ffffffffffffffffffffffffffffffffffffffff16146125d15760006002600083815260200190815260200160002060006101000a81548173ffffffffffffffffffffffffffffffffffffffff021916908373ffffffffffffffffffffffffffffffffffffffff1602179055505b50565b6125ec6001826000015461260d90919063ffffffff16565b816000018190555050565b6001816000016000828254019250508190555050565b600082821115612652576040517f08c379a0000000000000000000000000000000000000000000000000000000008152600401612649906135d1565b60405180910390fd5b600082840390508091505092915050565b828054600181600116156101000203166002900490600052602060002090601f016020900481019282601f106126a457805160ff19168380011785556126d2565b828001600101855582156126d2579182015b828111156126d15782518255916020019190600101906126b6565b5b5090506126df919061270f565b5090565b81548183558181111561270a57818360005260206000209182019101612709919061270f565b5b505050565b61273191905b8082111561272d576000816000905550600101612715565b5090565b90565b600081359050612743816139ad565b92915050565b600081359050612758816139c4565b92915050565b60008135905061276d816139db565b92915050565b600081519050612782816139db565b92915050565b600082601f83011261279957600080fd5b81356127ac6127a782613799565b61376c565b915080825260208301602083018583830111156127c857600080fd5b6127d383828461394d565b50505092915050565b6000813590506127eb816139f2565b92915050565b600082601f83011261280257600080fd5b8135612815612810826137c5565b61376c565b9150808252602083016020830185838301111561283157600080fd5b61283c83828461394d565b50505092915050565b60008135905061285481613a02565b92915050565b60006020828403121561286c57600080fd5b600061287a84828501612734565b91505092915050565b6000806040838503121561289657600080fd5b60006128a485828601612734565b92505060206128b585828601612734565b9150509250929050565b6000806000606084860312156128d457600080fd5b60006128e286828701612734565b93505060206128f386828701612734565b925050604061290486828701612845565b9150509250925092565b6000806000806080858703121561292457600080fd5b600061293287828801612734565b945050602061294387828801612734565b935050604061295487828801612845565b925050606085013567ffffffffffffffff81111561297157600080fd5b61297d87828801612788565b91505092959194509250565b6000806040838503121561299c57600080fd5b60006129aa85828601612734565b92505060206129bb85828601612749565b9150509250929050565b600080604083850312156129d857600080fd5b60006129e685828601612734565b92505060206129f785828601612845565b9150509250929050565b600060208284031215612a1357600080fd5b6000612a218482850161275e565b91505092915050565b600060208284031215612a3c57600080fd5b6000612a4a84828501612773565b91505092915050565b600080600080600080600080610100898b031215612a7057600080fd5b600089013567ffffffffffffffff811115612a8a57600080fd5b612a968b828c016127f1565b985050602089013567ffffffffffffffff811115612ab357600080fd5b612abf8b828c016127f1565b975050604089013567ffffffffffffffff811115612adc57600080fd5b612ae88b828c016127f1565b965050606089013567ffffffffffffffff811115612b0557600080fd5b612b118b828c016127f1565b955050608089013567ffffffffffffffff811115612b2e57600080fd5b612b3a8b828c016127f1565b94505060a089013567ffffffffffffffff811115612b5757600080fd5b612b638b828c016127f1565b93505060c0612b748b828c016127dc565b92505060e089013567ffffffffffffffff811115612b9157600080fd5b612b9d8b828c016127f1565b9150509295985092959890939650565b600060208284031215612bbf57600080fd5b6000612bcd84828501612845565b91505092915050565b6000612be28383612d0d565b905092915050565b612bf381613905565b82525050565b612c028161387e565b82525050565b6000612c1382613801565b612c1d818561383a565b935083602082028501612c2f856137f1565b8060005b85811015612c6b5784840389528151612c4c8582612bd6565b9450612c578361382d565b925060208a01995050600181019050612c33565b50829750879550505050505092915050565b612c8681613890565b82525050565b6000612c978261380c565b612ca1818561384b565b9350612cb181856020860161395c565b612cba8161398f565b840191505092915050565b612cce81613917565b82525050565b6000612cdf82613822565b612ce9818561386d565b9350612cf981856020860161395c565b612d028161398f565b840191505092915050565b6000612d1882613817565b612d22818561385c565b9350612d3281856020860161395c565b612d3b8161398f565b840191505092915050565b6000612d5182613817565b612d5b818561386d565b9350612d6b81856020860161395c565b612d748161398f565b840191505092915050565b6000612d8c602b8361386d565b91507f455243373231456e756d657261626c653a206f776e657220696e646578206f7560008301527f74206f6620626f756e64730000000000000000000000000000000000000000006020830152604082019050919050565b6000612df260328361386d565b91507f4552433732313a207472616e7366657220746f206e6f6e20455243373231526560008301527f63656976657220696d706c656d656e74657200000000000000000000000000006020830152604082019050919050565b6000612e58601c8361386d565b91507f4552433732313a20746f6b656e20616c7265616479206d696e746564000000006000830152602082019050919050565b6000612e9860248361386d565b91507f4552433732313a207472616e7366657220746f20746865207a65726f2061646460008301527f72657373000000000000000000000000000000000000000000000000000000006020830152604082019050919050565b6000612efe60198361386d565b91507f4552433732313a20617070726f766520746f2063616c6c6572000000000000006000830152602082019050919050565b6000612f3e601e8361386d565b91507f536166654d6174683a207375627472616374696f6e206f766572666c6f7700006000830152602082019050919050565b6000612f7e602c8361386d565b91507f4552433732313a206f70657261746f7220717565727920666f72206e6f6e657860008301527f697374656e7420746f6b656e00000000000000000000000000000000000000006020830152604082019050919050565b6000612fe460388361386d565b91507f4552433732313a20617070726f76652063616c6c6572206973206e6f74206f7760008301527f6e6572206e6f7220617070726f76656420666f7220616c6c00000000000000006020830152604082019050919050565b600061304a602a8361386d565b91507f4552433732313a2062616c616e636520717565727920666f7220746865207a6560008301527f726f2061646472657373000000000000000000000000000000000000000000006020830152604082019050919050565b60006130b060298361386d565b91507f4552433732313a206f776e657220717565727920666f72206e6f6e657869737460008301527f656e7420746f6b656e00000000000000000000000000000000000000000000006020830152604082019050919050565b600061311660208361386d565b91507f4552433732313a206d696e7420746f20746865207a65726f20616464726573736000830152602082019050919050565b6000613156602c8361386d565b91507f4552433732313a20617070726f76656420717565727920666f72206e6f6e657860008301527f697374656e7420746f6b656e00000000000000000000000000000000000000006020830152604082019050919050565b60006131bc60298361386d565b91507f4552433732313a207472616e73666572206f6620746f6b656e2074686174206960008301527f73206e6f74206f776e00000000000000000000000000000000000000000000006020830152604082019050919050565b6000613222602f8361386d565b91507f4552433732314d657461646174613a2055524920717565727920666f72206e6f60008301527f6e6578697374656e7420746f6b656e00000000000000000000000000000000006020830152604082019050919050565b600061328860218361386d565b91507f4552433732313a20617070726f76616c20746f2063757272656e74206f776e6560008301527f72000000000000000000000000000000000000000000000000000000000000006020830152604082019050919050565b60006132ee60318361386d565b91507f4552433732313a207472616e736665722063616c6c6572206973206e6f74206f60008301527f776e6572206e6f7220617070726f7665640000000000000000000000000000006020830152604082019050919050565b6000613354602c8361386d565b91507f455243373231456e756d657261626c653a20676c6f62616c20696e646578206f60008301527f7574206f6620626f756e647300000000000000000000000000000000000000006020830152604082019050919050565b6133b6816138fb565b82525050565b60006020820190506133d16000830184612bf9565b92915050565b60006080820190506133ec6000830187612bea565b6133f96020830186612bf9565b61340660408301856133ad565b81810360608301526134188184612c8c565b905095945050505050565b6000602082019050818103600083015261343d8184612c08565b905092915050565b600060208201905061345a6000830184612c7d565b92915050565b6000602082019050818103600083015261347a8184612cd4565b905092915050565b600061010082019050818103600083015261349d818b612d46565b905081810360208301526134b1818a612d46565b905081810360408301526134c58189612d46565b905081810360608301526134d98188612d46565b905081810360808301526134ed8187612d46565b905081810360a08301526135018186612d46565b905061351060c0830185612cc5565b81810360e08301526135228184612d46565b90509998505050505050505050565b6000602082019050818103600083015261354a81612d7f565b9050919050565b6000602082019050818103600083015261356a81612de5565b9050919050565b6000602082019050818103600083015261358a81612e4b565b9050919050565b600060208201905081810360008301526135aa81612e8b565b9050919050565b600060208201905081810360008301526135ca81612ef1565b9050919050565b600060208201905081810360008301526135ea81612f31565b9050919050565b6000602082019050818103600083015261360a81612f71565b9050919050565b6000602082019050818103600083015261362a81612fd7565b9050919050565b6000602082019050818103600083015261364a8161303d565b9050919050565b6000602082019050818103600083015261366a816130a3565b9050919050565b6000602082019050818103600083015261368a81613109565b9050919050565b600060208201905081810360008301526136aa81613149565b9050919050565b600060208201905081810360008301526136ca816131af565b9050919050565b600060208201905081810360008301526136ea81613215565b9050919050565b6000602082019050818103600083015261370a8161327b565b9050919050565b6000602082019050818103600083015261372a816132e1565b9050919050565b6000602082019050818103600083015261374a81613347565b9050919050565b600060208201905061376660008301846133ad565b92915050565b6000604051905081810181811067ffffffffffffffff8211171561378f57600080fd5b8060405250919050565b600067ffffffffffffffff8211156137b057600080fd5b601f19601f8301169050602081019050919050565b600067ffffffffffffffff8211156137dc57600080fd5b601f19601f8301169050602081019050919050565b6000819050602082019050919050565b600081519050919050565b600081519050919050565b600081519050919050565b600081519050919050565b6000602082019050919050565b600082825260208201905092915050565b600082825260208201905092915050565b600082825260208201905092915050565b600082825260208201905092915050565b6000613889826138db565b9050919050565b60008115159050919050565b60007fffffffff0000000000000000000000000000000000000000000000000000000082169050919050565b60008190506138d6826139a0565b919050565b600073ffffffffffffffffffffffffffffffffffffffff82169050919050565b6000819050919050565b600061391082613929565b9050919050565b6000613922826138c8565b9050919050565b60006139348261393b565b9050919050565b6000613946826138db565b9050919050565b82818337600083830152505050565b60005b8381101561397a57808201518184015260208101905061395f565b83811115613989576000848401525b50505050565b6000601f19601f8301169050919050565b600381106139aa57fe5b50565b6139b68161387e565b81146139c157600080fd5b50565b6139cd81613890565b81146139d857600080fd5b50565b6139e48161389c565b81146139ef57600080fd5b50565b600381106139ff57600080fd5b50565b613a0b816138fb565b8114613a1657600080fd5b5056fea365627a7a7231582070f442771dd5384c3a30972b18107aec26e9f0eb1fa3c61cc32cdcb85ae7bfe06c6578706572696d656e74616cf564736f6c63430005100040",
  "source": "pragma solidity 0.5.16;\r\n\r\nimport \"./ERC721Full.sol\";\r\npragma experimental ABIEncoderV2;\r\n\r\ncontract Recipes is ERC721Full {\r\n\r\n    enum RecipeType{ VERDE, AMARILLO, MORADO }\r\n\r\n    struct Recipe {\r\n        string nombre;\r\n        string dosis;\r\n        string unidad;\r\n        string frecuencia;\r\n        string lapso;\r\n        string descripcion;\r\n        RecipeType tipo;\r\n        string id_creador;\r\n    }\r\n\r\n    Recipe[] public recipes;\r\n\r\n    constructor() ERC721Full(\"Recipe\", \"RECIPE\") public {\r\n    }\r\n\r\n    event addedRecipe();\r\n\r\n    function getRecipe(uint pos) external view returns(string[] memory){\r\n        string[] memory toReturn = new string[](8);\r\n        toReturn[0] = recipes[pos].nombre;\r\n        toReturn[1] = recipes[pos].dosis;\r\n        toReturn[2] = recipes[pos].unidad;\r\n        toReturn[3] = recipes[pos].frecuencia;\r\n        toReturn[4] = recipes[pos].lapso;\r\n        toReturn[5] = recipes[pos].descripcion;\r\n        toReturn[6] = getTypeAsString(recipes[pos].tipo);\r\n        toReturn[7] = recipes[pos].id_creador;\r\n        return toReturn;\r\n    }\r\n\r\n    function getTypeAsString(RecipeType tipo) private pure returns(string memory){\r\n        if(tipo==RecipeType.VERDE){\r\n            return '0';\r\n        }\r\n        if(tipo==RecipeType.AMARILLO){\r\n            return '1';\r\n        }\r\n        return '2';\r\n    }\r\n\r\n    function mint(\r\n        string memory _nombre,\r\n        string memory _dosis,\r\n        string memory _unidad,\r\n        string memory _frecuencia,\r\n        string memory _lapso,\r\n        string memory _descripcion,\r\n        RecipeType _tipo,\r\n        string memory _idCreador\r\n    ) public {\r\n        uint _id = recipes.push(\r\n            Recipe(\r\n                _nombre,\r\n                _dosis,\r\n                _unidad,\r\n                _frecuencia,\r\n                _lapso,\r\n                _descripcion,\r\n                _tipo,\r\n                _idCreador\r\n            )\r\n        );\r\n        _mint(msg.sender, _id);\r\n        emit addedRecipe();\r\n    }\r\n\r\n}\r\n\r\n",
  "sourcePath": "C:\\Users\\Dell\\Documents\\GitHub\\medical_recipe_viewer\\contracts\\Recipes.sol",
  "compiler": {
    "name": "solc",
    "version": "0.5.16+commit.9c3226ce.Emscripten.clang"
  },
  "schemaVersion": "3.4.8",
  "updatedAt": "2022-07-03T21:25:37.839Z",
  "networkType": "ethereum",
  "devdoc": {
    "methods": {
      "approve(address,uint256)": {
        "details": "Approves another address to transfer the given token ID The zero address indicates there is no approved address. There can only be one approved address per token at a given time. Can only be called by the token owner or an approved operator.",
        "params": {
          "to": "address to be approved for the given token ID",
          "tokenId": "uint256 ID of the token to be approved"
        }
      },
      "balanceOf(address)": {
        "details": "Gets the balance of the specified address.",
        "params": {
          "owner": "address to query the balance of"
        },
        "return": "uint256 representing the amount owned by the passed address"
      },
      "getApproved(uint256)": {
        "details": "Gets the approved address for a token ID, or zero if no address set Reverts if the token ID does not exist.",
        "params": {
          "tokenId": "uint256 ID of the token to query the approval of"
        },
        "return": "address currently approved for the given token ID"
      },
      "isApprovedForAll(address,address)": {
        "details": "Tells whether an operator is approved by a given owner.",
        "params": {
          "operator": "operator address which you want to query the approval of",
          "owner": "owner address which you want to query the approval of"
        },
        "return": "bool whether the given operator is approved by the given owner"
      },
      "name()": {
        "details": "Gets the token name.",
        "return": "string representing the token name"
      },
      "ownerOf(uint256)": {
        "details": "Gets the owner of the specified token ID.",
        "params": {
          "tokenId": "uint256 ID of the token to query the owner of"
        },
        "return": "address currently marked as the owner of the given token ID"
      },
      "safeTransferFrom(address,address,uint256)": {
        "details": "Safely transfers the ownership of a given token ID to another address If the target address is a contract, it must implement `onERC721Received`, which is called upon a safe transfer, and return the magic value `bytes4(keccak256(\"onERC721Received(address,address,uint256,bytes)\"))`; otherwise, the transfer is reverted. Requires the msg.sender to be the owner, approved, or operator",
        "params": {
          "from": "current owner of the token",
          "to": "address to receive the ownership of the given token ID",
          "tokenId": "uint256 ID of the token to be transferred"
        }
      },
      "safeTransferFrom(address,address,uint256,bytes)": {
        "details": "Safely transfers the ownership of a given token ID to another address If the target address is a contract, it must implement `onERC721Received`, which is called upon a safe transfer, and return the magic value `bytes4(keccak256(\"onERC721Received(address,address,uint256,bytes)\"))`; otherwise, the transfer is reverted. Requires the msg.sender to be the owner, approved, or operator",
        "params": {
          "_data": "bytes data to send along with a safe transfer check",
          "from": "current owner of the token",
          "to": "address to receive the ownership of the given token ID",
          "tokenId": "uint256 ID of the token to be transferred"
        }
      },
      "setApprovalForAll(address,bool)": {
        "details": "Sets or unsets the approval of a given operator An operator is allowed to transfer all tokens of the sender on their behalf.",
        "params": {
          "approved": "representing the status of the approval to be set",
          "to": "operator address to set the approval"
        }
      },
      "supportsInterface(bytes4)": {
        "details": "See `IERC165.supportsInterface`.      * Time complexity O(1), guaranteed to always use less than 30 000 gas."
      },
      "symbol()": {
        "details": "Gets the token symbol.",
        "return": "string representing the token symbol"
      },
      "tokenByIndex(uint256)": {
        "details": "Gets the token ID at a given index of all the tokens in this contract Reverts if the index is greater or equal to the total number of tokens.",
        "params": {
          "index": "uint256 representing the index to be accessed of the tokens list"
        },
        "return": "uint256 token ID at the given index of the tokens list"
      },
      "tokenOfOwnerByIndex(address,uint256)": {
        "details": "Gets the token ID at a given index of the tokens list of the requested owner.",
        "params": {
          "index": "uint256 representing the index to be accessed of the requested tokens list",
          "owner": "address owning the tokens list to be accessed"
        },
        "return": "uint256 token ID at the given index of the tokens list owned by the requested address"
      },
      "tokenURI(uint256)": {
        "details": "Returns an URI for a given token ID. Throws if the token ID does not exist. May return an empty string.",
        "params": {
          "tokenId": "uint256 ID of the token to query"
        }
      },
      "totalSupply()": {
        "details": "Gets the total amount of tokens stored by the contract.",
        "return": "uint256 representing the total amount of tokens"
      },
      "transferFrom(address,address,uint256)": {
        "details": "Transfers the ownership of a given token ID to another address. Usage of this method is discouraged, use `safeTransferFrom` whenever possible. Requires the msg.sender to be the owner, approved, or operator.",
        "params": {
          "from": "current owner of the token",
          "to": "address to receive the ownership of the given token ID",
          "tokenId": "uint256 ID of the token to be transferred"
        }
      }
    }
  },
  "userdoc": {
    "methods": {}
  }
}