{
  "contractName": "Recipes",
  "abi": [
    {
      "inputs": [],
      "payable": false,
      "stateMutability": "nonpayable",
      "type": "constructor"
    },
    {
      "anonymous": false,
      "inputs": [
        {
          "indexed": true,
          "internalType": "address",
          "name": "owner",
          "type": "address"
        },
        {
          "indexed": true,
          "internalType": "address",
          "name": "approved",
          "type": "address"
        },
        {
          "indexed": true,
          "internalType": "uint256",
          "name": "tokenId",
          "type": "uint256"
        }
      ],
      "name": "Approval",
      "type": "event"
    },
    {
      "anonymous": false,
      "inputs": [
        {
          "indexed": true,
          "internalType": "address",
          "name": "owner",
          "type": "address"
        },
        {
          "indexed": true,
          "internalType": "address",
          "name": "operator",
          "type": "address"
        },
        {
          "indexed": false,
          "internalType": "bool",
          "name": "approved",
          "type": "bool"
        }
      ],
      "name": "ApprovalForAll",
      "type": "event"
    },
    {
      "anonymous": false,
      "inputs": [
        {
          "indexed": true,
          "internalType": "address",
          "name": "from",
          "type": "address"
        },
        {
          "indexed": true,
          "internalType": "address",
          "name": "to",
          "type": "address"
        },
        {
          "indexed": true,
          "internalType": "uint256",
          "name": "tokenId",
          "type": "uint256"
        }
      ],
      "name": "Transfer",
      "type": "event"
    },
    {
      "anonymous": false,
      "inputs": [],
      "name": "addedRecipe",
      "type": "event"
    },
    {
      "constant": false,
      "inputs": [
        {
          "internalType": "address",
          "name": "to",
          "type": "address"
        },
        {
          "internalType": "uint256",
          "name": "tokenId",
          "type": "uint256"
        }
      ],
      "name": "approve",
      "outputs": [],
      "payable": false,
      "stateMutability": "nonpayable",
      "type": "function"
    },
    {
      "constant": true,
      "inputs": [
        {
          "internalType": "address",
          "name": "owner",
          "type": "address"
        }
      ],
      "name": "balanceOf",
      "outputs": [
        {
          "internalType": "uint256",
          "name": "",
          "type": "uint256"
        }
      ],
      "payable": false,
      "stateMutability": "view",
      "type": "function"
    },
    {
      "constant": true,
      "inputs": [
        {
          "internalType": "uint256",
          "name": "tokenId",
          "type": "uint256"
        }
      ],
      "name": "getApproved",
      "outputs": [
        {
          "internalType": "address",
          "name": "",
          "type": "address"
        }
      ],
      "payable": false,
      "stateMutability": "view",
      "type": "function"
    },
    {
      "constant": true,
      "inputs": [
        {
          "internalType": "address",
          "name": "owner",
          "type": "address"
        },
        {
          "internalType": "address",
          "name": "operator",
          "type": "address"
        }
      ],
      "name": "isApprovedForAll",
      "outputs": [
        {
          "internalType": "bool",
          "name": "",
          "type": "bool"
        }
      ],
      "payable": false,
      "stateMutability": "view",
      "type": "function"
    },
    {
      "constant": true,
      "inputs": [],
      "name": "name",
      "outputs": [
        {
          "internalType": "string",
          "name": "",
          "type": "string"
        }
      ],
      "payable": false,
      "stateMutability": "view",
      "type": "function"
    },
    {
      "constant": true,
      "inputs": [
        {
          "internalType": "uint256",
          "name": "tokenId",
          "type": "uint256"
        }
      ],
      "name": "ownerOf",
      "outputs": [
        {
          "internalType": "address",
          "name": "",
          "type": "address"
        }
      ],
      "payable": false,
      "stateMutability": "view",
      "type": "function"
    },
    {
      "constant": true,
      "inputs": [
        {
          "internalType": "uint256",
          "name": "",
          "type": "uint256"
        }
      ],
      "name": "recipes",
      "outputs": [
        {
          "internalType": "string",
          "name": "nombre",
          "type": "string"
        },
        {
          "internalType": "string",
          "name": "dosis",
          "type": "string"
        },
        {
          "internalType": "string",
          "name": "unidad",
          "type": "string"
        },
        {
          "internalType": "string",
          "name": "frecuencia",
          "type": "string"
        },
        {
          "internalType": "string",
          "name": "lapso",
          "type": "string"
        },
        {
          "internalType": "string",
          "name": "descripcion",
          "type": "string"
        },
        {
          "internalType": "enum Recipes.RecipeType",
          "name": "tipo",
          "type": "uint8"
        },
        {
          "internalType": "string",
          "name": "id_creador",
          "type": "string"
        }
      ],
      "payable": false,
      "stateMutability": "view",
      "type": "function"
    },
    {
      "constant": false,
      "inputs": [
        {
          "internalType": "address",
          "name": "from",
          "type": "address"
        },
        {
          "internalType": "address",
          "name": "to",
          "type": "address"
        },
        {
          "internalType": "uint256",
          "name": "tokenId",
          "type": "uint256"
        }
      ],
      "name": "safeTransferFrom",
      "outputs": [],
      "payable": false,
      "stateMutability": "nonpayable",
      "type": "function"
    },
    {
      "constant": false,
      "inputs": [
        {
          "internalType": "address",
          "name": "from",
          "type": "address"
        },
        {
          "internalType": "address",
          "name": "to",
          "type": "address"
        },
        {
          "internalType": "uint256",
          "name": "tokenId",
          "type": "uint256"
        },
        {
          "internalType": "bytes",
          "name": "_data",
          "type": "bytes"
        }
      ],
      "name": "safeTransferFrom",
      "outputs": [],
      "payable": false,
      "stateMutability": "nonpayable",
      "type": "function"
    },
    {
      "constant": false,
      "inputs": [
        {
          "internalType": "address",
          "name": "to",
          "type": "address"
        },
        {
          "internalType": "bool",
          "name": "approved",
          "type": "bool"
        }
      ],
      "name": "setApprovalForAll",
      "outputs": [],
      "payable": false,
      "stateMutability": "nonpayable",
      "type": "function"
    },
    {
      "constant": true,
      "inputs": [
        {
          "internalType": "bytes4",
          "name": "interfaceId",
          "type": "bytes4"
        }
      ],
      "name": "supportsInterface",
      "outputs": [
        {
          "internalType": "bool",
          "name": "",
          "type": "bool"
        }
      ],
      "payable": false,
      "stateMutability": "view",
      "type": "function"
    },
    {
      "constant": true,
      "inputs": [],
      "name": "symbol",
      "outputs": [
        {
          "internalType": "string",
          "name": "",
          "type": "string"
        }
      ],
      "payable": false,
      "stateMutability": "view",
      "type": "function"
    },
    {
      "constant": true,
      "inputs": [
        {
          "internalType": "uint256",
          "name": "index",
          "type": "uint256"
        }
      ],
      "name": "tokenByIndex",
      "outputs": [
        {
          "internalType": "uint256",
          "name": "",
          "type": "uint256"
        }
      ],
      "payable": false,
      "stateMutability": "view",
      "type": "function"
    },
    {
      "constant": true,
      "inputs": [
        {
          "internalType": "address",
          "name": "owner",
          "type": "address"
        },
        {
          "internalType": "uint256",
          "name": "index",
          "type": "uint256"
        }
      ],
      "name": "tokenOfOwnerByIndex",
      "outputs": [
        {
          "internalType": "uint256",
          "name": "",
          "type": "uint256"
        }
      ],
      "payable": false,
      "stateMutability": "view",
      "type": "function"
    },
    {
      "constant": true,
      "inputs": [
        {
          "internalType": "uint256",
          "name": "tokenId",
          "type": "uint256"
        }
      ],
      "name": "tokenURI",
      "outputs": [
        {
          "internalType": "string",
          "name": "",
          "type": "string"
        }
      ],
      "payable": false,
      "stateMutability": "view",
      "type": "function"
    },
    {
      "constant": true,
      "inputs": [],
      "name": "totalSupply",
      "outputs": [
        {
          "internalType": "uint256",
          "name": "",
          "type": "uint256"
        }
      ],
      "payable": false,
      "stateMutability": "view",
      "type": "function"
    },
    {
      "constant": false,
      "inputs": [
        {
          "internalType": "address",
          "name": "from",
          "type": "address"
        },
        {
          "internalType": "address",
          "name": "to",
          "type": "address"
        },
        {
          "internalType": "uint256",
          "name": "tokenId",
          "type": "uint256"
        }
      ],
      "name": "transferFrom",
      "outputs": [],
      "payable": false,
      "stateMutability": "nonpayable",
      "type": "function"
    },
    {
      "constant": true,
      "inputs": [
        {
          "internalType": "uint256",
          "name": "pos",
          "type": "uint256"
        }
      ],
      "name": "getRecipe",
      "outputs": [
        {
          "internalType": "string[]",
          "name": "",
          "type": "string[]"
        }
      ],
      "payable": false,
      "stateMutability": "view",
      "type": "function"
    },
    {
      "constant": false,
      "inputs": [
        {
          "internalType": "string",
          "name": "_nombre",
          "type": "string"
        },
        {
          "internalType": "string",
          "name": "_dosis",
          "type": "string"
        },
        {
          "internalType": "string",
          "name": "_unidad",
          "type": "string"
        },
        {
          "internalType": "string",
          "name": "_frecuencia",
          "type": "string"
        },
        {
          "internalType": "string",
          "name": "_lapso",
          "type": "string"
        },
        {
          "internalType": "string",
          "name": "_descripcion",
          "type": "string"
        },
        {
          "internalType": "enum Recipes.RecipeType",
          "name": "_tipo",
          "type": "uint8"
        },
        {
          "internalType": "string",
          "name": "_idCreador",
          "type": "string"
        },
        {
          "internalType": "address",
          "name": "profileAdr",
          "type": "address"
        }
      ],
      "name": "mint",
      "outputs": [],
      "payable": false,
      "stateMutability": "nonpayable",
      "type": "function"
    }
  ],
  "bytecode": "0x60806040523480156200001157600080fd5b506040518060400160405280600681526020017f52656369706500000000000000000000000000000000000000000000000000008152506040518060400160405280600681526020017f52454349504500000000000000000000000000000000000000000000000000008152508181620000986301ffc9a760e01b6200011c60201b60201c565b620000b06380ac58cd60e01b6200011c60201b60201c565b620000c863780e9d6360e01b6200011c60201b60201c565b8160099080519060200190620000e0929190620001f4565b5080600a9080519060200190620000f9929190620001f4565b5062000112635b5e139f60e01b6200011c60201b60201c565b5050505062000318565b63ffffffff60e01b817bffffffffffffffffffffffffffffffffffffffffffffffffffffffff1916141562000188576040517f08c379a00000000000000000000000000000000000000000000000000000000081526004016200017f90620002e5565b60405180910390fd5b6001600080837bffffffffffffffffffffffffffffffffffffffffffffffffffffffff19167bffffffffffffffffffffffffffffffffffffffffffffffffffffffff1916815260200190815260200160002060006101000a81548160ff02191690831515021790555050565b828054600181600116156101000203166002900490600052602060002090601f016020900481019282601f106200023757805160ff191683800117855562000268565b8280016001018555821562000268579182015b82811115620002675782518255916020019190600101906200024a565b5b5090506200027791906200027b565b5090565b620002a091905b808211156200029c57600081600090555060010162000282565b5090565b90565b6000620002b2601c8362000307565b91507f4552433136353a20696e76616c696420696e74657266616365206964000000006000830152602082019050919050565b600060208201905081810360008301526200030081620002a3565b9050919050565b600082825260208201905092915050565b613cf180620003286000396000f3fe608060405234801561001057600080fd5b50600436106101215760003560e01c80634f6ccce7116100ad578063a22cb46511610071578063a22cb46514610347578063b88d4fde14610363578063c87b56dd1461037f578063e985e9c5146103af578063f8d12a41146103df57610121565b80634f6ccce71461027d5780636352211e146102ad57806370a08231146102dd5780638b0acfe71461030d57806395d89b411461032957610121565b806318160ddd116100f457806318160ddd146101c057806323b872dd146101de5780632f745c59146101fa57806342842e0e1461022a578063443c227c1461024657610121565b806301ffc9a71461012657806306fdde0314610156578063081812fc14610174578063095ea7b3146101a4575b600080fd5b610140600480360361013b9190810190612bea565b61040f565b60405161014d919061369e565b60405180910390f35b61015e610476565b60405161016b91906136b9565b60405180910390f35b61018e60048036036101899190810190612deb565b610518565b60405161019b91906135fa565b60405180910390f35b6101be60048036036101b99190810190612bae565b61059d565b005b6101c861074a565b6040516101d591906139aa565b60405180910390f35b6101f860048036036101f39190810190612aa8565b610757565b005b610214600480360361020f9190810190612bae565b6107b0565b60405161022191906139aa565b60405180910390f35b610244600480360361023f9190810190612aa8565b610859565b005b610260600480360361025b9190810190612deb565b610879565b6040516102749897969594939291906136db565b60405180910390f35b61029760048036036102929190810190612deb565b610d03565b6040516102a491906139aa565b60405180910390f35b6102c760048036036102c29190810190612deb565b610d6d565b6040516102d491906135fa565b60405180910390f35b6102f760048036036102f29190810190612a43565b610e1f565b60405161030491906139aa565b60405180910390f35b61032760048036036103229190810190612c3c565b610ede565b005b61033161114f565b60405161033e91906136b9565b60405180910390f35b610361600480360361035c9190810190612b72565b6111f1565b005b61037d60048036036103789190810190612af7565b61135d565b005b61039960048036036103949190810190612deb565b6113b9565b6040516103a691906136b9565b60405180910390f35b6103c960048036036103c49190810190612a6c565b6114b6565b6040516103d6919061369e565b60405180910390f35b6103f960048036036103f49190810190612deb565b61154a565b604051610406919061367c565b60405180910390f35b6000806000837bffffffffffffffffffffffffffffffffffffffffffffffffffffffff19167bffffffffffffffffffffffffffffffffffffffffffffffffffffffff1916815260200190815260200160002060009054906101000a900460ff169050919050565b606060098054600181600116156101000203166002900480601f01602080910402602001604051908101604052809291908181526020018280546001816001161561010002031660029004801561050e5780601f106104e35761010080835404028352916020019161050e565b820191906000526020600020905b8154815290600101906020018083116104f157829003601f168201915b5050505050905090565b600061052382611b83565b610562576040517f08c379a0000000000000000000000000000000000000000000000000000000008152600401610559906138ea565b60405180910390fd5b6002600083815260200190815260200160002060009054906101000a900473ffffffffffffffffffffffffffffffffffffffff169050919050565b60006105a882610d6d565b90508073ffffffffffffffffffffffffffffffffffffffff168373ffffffffffffffffffffffffffffffffffffffff161415610619576040517f08c379a00000000000000000000000000000000000000000000000000000000081526004016106109061394a565b60405180910390fd5b8073ffffffffffffffffffffffffffffffffffffffff163373ffffffffffffffffffffffffffffffffffffffff161480610659575061065881336114b6565b5b610698576040517f08c379a000000000000000000000000000000000000000000000000000000000815260040161068f9061386a565b60405180910390fd5b826002600084815260200190815260200160002060006101000a81548173ffffffffffffffffffffffffffffffffffffffff021916908373ffffffffffffffffffffffffffffffffffffffff160217905550818373ffffffffffffffffffffffffffffffffffffffff168273ffffffffffffffffffffffffffffffffffffffff167f8c5be1e5ebec7d5bd14f71427d1e84f3dd0314c0f7b2291e5b200ac8c7c3b92560405160405180910390a4505050565b6000600780549050905090565b6107613382611bf5565b6107a0576040517f08c379a00000000000000000000000000000000000000000000000000000000081526004016107979061396a565b60405180910390fd5b6107ab838383611cd3565b505050565b60006107bb83610e1f565b82106107fc576040517f08c379a00000000000000000000000000000000000000000000000000000000081526004016107f39061378a565b60405180910390fd5b600560008473ffffffffffffffffffffffffffffffffffffffff1673ffffffffffffffffffffffffffffffffffffffff168152602001908152602001600020828154811061084657fe5b9060005260206000200154905092915050565b6108748383836040518060200160405280600081525061135d565b505050565b600c818154811061088657fe5b9060005260206000209060080201600091509050806000018054600181600116156101000203166002900480601f0160208091040260200160405190810160405280929190818152602001828054600181600116156101000203166002900480156109325780601f1061090757610100808354040283529160200191610932565b820191906000526020600020905b81548152906001019060200180831161091557829003601f168201915b505050505090806001018054600181600116156101000203166002900480601f0160208091040260200160405190810160405280929190818152602001828054600181600116156101000203166002900480156109d05780601f106109a5576101008083540402835291602001916109d0565b820191906000526020600020905b8154815290600101906020018083116109b357829003601f168201915b505050505090806002018054600181600116156101000203166002900480601f016020809104026020016040519081016040528092919081815260200182805460018160011615610100020316600290048015610a6e5780601f10610a4357610100808354040283529160200191610a6e565b820191906000526020600020905b815481529060010190602001808311610a5157829003601f168201915b505050505090806003018054600181600116156101000203166002900480601f016020809104026020016040519081016040528092919081815260200182805460018160011615610100020316600290048015610b0c5780601f10610ae157610100808354040283529160200191610b0c565b820191906000526020600020905b815481529060010190602001808311610aef57829003601f168201915b505050505090806004018054600181600116156101000203166002900480601f016020809104026020016040519081016040528092919081815260200182805460018160011615610100020316600290048015610baa5780601f10610b7f57610100808354040283529160200191610baa565b820191906000526020600020905b815481529060010190602001808311610b8d57829003601f168201915b505050505090806005018054600181600116156101000203166002900480601f016020809104026020016040519081016040528092919081815260200182805460018160011615610100020316600290048015610c485780601f10610c1d57610100808354040283529160200191610c48565b820191906000526020600020905b815481529060010190602001808311610c2b57829003601f168201915b5050505050908060060160009054906101000a900460ff1690806007018054600181600116156101000203166002900480601f016020809104026020016040519081016040528092919081815260200182805460018160011615610100020316600290048015610cf95780601f10610cce57610100808354040283529160200191610cf9565b820191906000526020600020905b815481529060010190602001808311610cdc57829003601f168201915b5050505050905088565b6000610d0d61074a565b8210610d4e576040517f08c379a0000000000000000000000000000000000000000000000000000000008152600401610d459061398a565b60405180910390fd5b60078281548110610d5b57fe5b90600052602060002001549050919050565b6000806001600084815260200190815260200160002060009054906101000a900473ffffffffffffffffffffffffffffffffffffffff169050600073ffffffffffffffffffffffffffffffffffffffff168173ffffffffffffffffffffffffffffffffffffffff161415610e16576040517f08c379a0000000000000000000000000000000000000000000000000000000008152600401610e0d906138aa565b60405180910390fd5b80915050919050565b60008073ffffffffffffffffffffffffffffffffffffffff168273ffffffffffffffffffffffffffffffffffffffff161415610e90576040517f08c379a0000000000000000000000000000000000000000000000000000000008152600401610e879061388a565b60405180910390fd5b610ed7600360008473ffffffffffffffffffffffffffffffffffffffff1673ffffffffffffffffffffffffffffffffffffffff168152602001908152602001600020611cf7565b9050919050565b6000819050610eeb612727565b8173ffffffffffffffffffffffffffffffffffffffff1663b0cfeff9336040518263ffffffff1660e01b8152600401610f249190613615565b60006040518083038186803b158015610f3c57600080fd5b505afa158015610f50573d6000803e3d6000fd5b505050506040513d6000823e3d601f19601f82011682018060405250610f799190810190612daa565b905060006002811115610f8857fe5b81604001516002811115610f9857fe5b1415611142576000600c6040518061010001604052808e81526020018d81526020018c81526020018b81526020018a8152602001898152602001886002811115610fde57fe5b81526020018781525090806001815401808255809150509060018203906000526020600020906008020160009091929091909150600082015181600001908051906020019061102e929190612753565b50602082015181600101908051906020019061104b929190612753565b506040820151816002019080519060200190611068929190612753565b506060820151816003019080519060200190611085929190612753565b5060808201518160040190805190602001906110a2929190612753565b5060a08201518160050190805190602001906110bf929190612753565b5060c08201518160060160006101000a81548160ff021916908360028111156110e457fe5b021790555060e0820151816007019080519060200190611105929190612753565b50505090506111143382611d05565b7f84f0da0429e9dedfaa297aef09bffb3989efec06000a57e7d1509bb7e697218f60405160405180910390a1505b5050505050505050505050565b6060600a8054600181600116156101000203166002900480601f0160208091040260200160405190810160405280929190818152602001828054600181600116156101000203166002900480156111e75780601f106111bc576101008083540402835291602001916111e7565b820191906000526020600020905b8154815290600101906020018083116111ca57829003601f168201915b5050505050905090565b3373ffffffffffffffffffffffffffffffffffffffff168273ffffffffffffffffffffffffffffffffffffffff161415611260576040517f08c379a00000000000000000000000000000000000000000000000000000000081526004016112579061380a565b60405180910390fd5b80600460003373ffffffffffffffffffffffffffffffffffffffff1673ffffffffffffffffffffffffffffffffffffffff16815260200190815260200160002060008473ffffffffffffffffffffffffffffffffffffffff1673ffffffffffffffffffffffffffffffffffffffff16815260200190815260200160002060006101000a81548160ff0219169083151502179055508173ffffffffffffffffffffffffffffffffffffffff163373ffffffffffffffffffffffffffffffffffffffff167f17307eab39ab6107e8899845ad3d59bd9653f200f220920489ca2b5937696c3183604051611351919061369e565b60405180910390a35050565b611368848484610757565b61137484848484611d26565b6113b3576040517f08c379a00000000000000000000000000000000000000000000000000000000081526004016113aa906137aa565b60405180910390fd5b50505050565b60606113c482611b83565b611403576040517f08c379a00000000000000000000000000000000000000000000000000000000081526004016113fa9061392a565b60405180910390fd5b600b60008381526020019081526020016000208054600181600116156101000203166002900480601f0160208091040260200160405190810160405280929190818152602001828054600181600116156101000203166002900480156114aa5780601f1061147f576101008083540402835291602001916114aa565b820191906000526020600020905b81548152906001019060200180831161148d57829003601f168201915b50505050509050919050565b6000600460008473ffffffffffffffffffffffffffffffffffffffff1673ffffffffffffffffffffffffffffffffffffffff16815260200190815260200160002060008373ffffffffffffffffffffffffffffffffffffffff1673ffffffffffffffffffffffffffffffffffffffff16815260200190815260200160002060009054906101000a900460ff16905092915050565b606080600860405190808252806020026020018201604052801561158257816020015b606081526020019060019003908161156d5790505b509050600c838154811061159257fe5b90600052602060002090600802016000018054600181600116156101000203166002900480601f0160208091040260200160405190810160405280929190818152602001828054600181600116156101000203166002900480156116375780601f1061160c57610100808354040283529160200191611637565b820191906000526020600020905b81548152906001019060200180831161161a57829003601f168201915b50505050508160008151811061164957fe5b6020026020010181905250600c838154811061166157fe5b90600052602060002090600802016001018054600181600116156101000203166002900480601f0160208091040260200160405190810160405280929190818152602001828054600181600116156101000203166002900480156117065780601f106116db57610100808354040283529160200191611706565b820191906000526020600020905b8154815290600101906020018083116116e957829003601f168201915b50505050508160018151811061171857fe5b6020026020010181905250600c838154811061173057fe5b90600052602060002090600802016002018054600181600116156101000203166002900480601f0160208091040260200160405190810160405280929190818152602001828054600181600116156101000203166002900480156117d55780601f106117aa576101008083540402835291602001916117d5565b820191906000526020600020905b8154815290600101906020018083116117b857829003601f168201915b5050505050816002815181106117e757fe5b6020026020010181905250600c83815481106117ff57fe5b90600052602060002090600802016003018054600181600116156101000203166002900480601f0160208091040260200160405190810160405280929190818152602001828054600181600116156101000203166002900480156118a45780601f10611879576101008083540402835291602001916118a4565b820191906000526020600020905b81548152906001019060200180831161188757829003601f168201915b5050505050816003815181106118b657fe5b6020026020010181905250600c83815481106118ce57fe5b90600052602060002090600802016004018054600181600116156101000203166002900480601f0160208091040260200160405190810160405280929190818152602001828054600181600116156101000203166002900480156119735780601f1061194857610100808354040283529160200191611973565b820191906000526020600020905b81548152906001019060200180831161195657829003601f168201915b50505050508160048151811061198557fe5b6020026020010181905250600c838154811061199d57fe5b90600052602060002090600802016005018054600181600116156101000203166002900480601f016020809104026020016040519081016040528092919081815260200182805460018160011615610100020316600290048015611a425780601f10611a1757610100808354040283529160200191611a42565b820191906000526020600020905b815481529060010190602001808311611a2557829003601f168201915b505050505081600581518110611a5457fe5b6020026020010181905250611a93600c8481548110611a6f57fe5b906000526020600020906008020160060160009054906101000a900460ff16611e3d565b81600681518110611aa057fe5b6020026020010181905250600c8381548110611ab857fe5b90600052602060002090600802016007018054600181600116156101000203166002900480601f016020809104026020016040519081016040528092919081815260200182805460018160011615610100020316600290048015611b5d5780601f10611b3257610100808354040283529160200191611b5d565b820191906000526020600020905b815481529060010190602001808311611b4057829003601f168201915b505050505081600781518110611b6f57fe5b602002602001018190525080915050919050565b6000806001600084815260200190815260200160002060009054906101000a900473ffffffffffffffffffffffffffffffffffffffff169050600073ffffffffffffffffffffffffffffffffffffffff168173ffffffffffffffffffffffffffffffffffffffff161415915050919050565b6000611c0082611b83565b611c3f576040517f08c379a0000000000000000000000000000000000000000000000000000000008152600401611c369061384a565b60405180910390fd5b6000611c4a83610d6d565b90508073ffffffffffffffffffffffffffffffffffffffff168473ffffffffffffffffffffffffffffffffffffffff161480611cb957508373ffffffffffffffffffffffffffffffffffffffff16611ca184610518565b73ffffffffffffffffffffffffffffffffffffffff16145b80611cca5750611cc981856114b6565b5b91505092915050565b611cde838383611f35565b611ce88382612164565b611cf28282612302565b505050565b600081600001549050919050565b611d0f82826123c9565b611d198282612302565b611d228161257b565b5050565b6000611d478473ffffffffffffffffffffffffffffffffffffffff166125c7565b611d545760019050611e35565b60008473ffffffffffffffffffffffffffffffffffffffff1663150b7a02338887876040518563ffffffff1660e01b8152600401611d959493929190613630565b602060405180830381600087803b158015611daf57600080fd5b505af1158015611dc3573d6000803e3d6000fd5b505050506040513d601f19601f82011682018060405250611de79190810190612c13565b905063150b7a0260e01b7bffffffffffffffffffffffffffffffffffffffffffffffffffffffff1916817bffffffffffffffffffffffffffffffffffffffffffffffffffffffff1916149150505b949350505050565b606060006002811115611e4c57fe5b826002811115611e5857fe5b1415611e9b576040518060400160405280600181526020017f30000000000000000000000000000000000000000000000000000000000000008152509050611f30565b60016002811115611ea857fe5b826002811115611eb457fe5b1415611ef7576040518060400160405280600181526020017f31000000000000000000000000000000000000000000000000000000000000008152509050611f30565b6040518060400160405280600181526020017f320000000000000000000000000000000000000000000000000000000000000081525090505b919050565b8273ffffffffffffffffffffffffffffffffffffffff16611f5582610d6d565b73ffffffffffffffffffffffffffffffffffffffff1614611fab576040517f08c379a0000000000000000000000000000000000000000000000000000000008152600401611fa29061390a565b60405180910390fd5b600073ffffffffffffffffffffffffffffffffffffffff168273ffffffffffffffffffffffffffffffffffffffff16141561201b576040517f08c379a0000000000000000000000000000000000000000000000000000000008152600401612012906137ea565b60405180910390fd5b612024816125da565b61206b600360008573ffffffffffffffffffffffffffffffffffffffff1673ffffffffffffffffffffffffffffffffffffffff168152602001908152602001600020612698565b6120b2600360008473ffffffffffffffffffffffffffffffffffffffff1673ffffffffffffffffffffffffffffffffffffffff1681526020019081526020016000206126bb565b816001600083815260200190815260200160002060006101000a81548173ffffffffffffffffffffffffffffffffffffffff021916908373ffffffffffffffffffffffffffffffffffffffff160217905550808273ffffffffffffffffffffffffffffffffffffffff168473ffffffffffffffffffffffffffffffffffffffff167fddf252ad1be2c89b69c2b068fc378daa952ba7f163c4a11628f55a4df523b3ef60405160405180910390a4505050565b60006121bc6001600560008673ffffffffffffffffffffffffffffffffffffffff1673ffffffffffffffffffffffffffffffffffffffff168152602001908152602001600020805490506126d190919063ffffffff16565b90506000600660008481526020019081526020016000205490508181146122a9576000600560008673ffffffffffffffffffffffffffffffffffffffff1673ffffffffffffffffffffffffffffffffffffffff168152602001908152602001600020838154811061222957fe5b9060005260206000200154905080600560008773ffffffffffffffffffffffffffffffffffffffff1673ffffffffffffffffffffffffffffffffffffffff168152602001908152602001600020838154811061228157fe5b9060005260206000200181905550816006600083815260200190815260200160002081905550505b600560008573ffffffffffffffffffffffffffffffffffffffff1673ffffffffffffffffffffffffffffffffffffffff1681526020019081526020016000208054809190600190036122fb91906127d3565b5050505050565b600560008373ffffffffffffffffffffffffffffffffffffffff1673ffffffffffffffffffffffffffffffffffffffff168152602001908152602001600020805490506006600083815260200190815260200160002081905550600560008373ffffffffffffffffffffffffffffffffffffffff1673ffffffffffffffffffffffffffffffffffffffff1681526020019081526020016000208190806001815401808255809150509060018203906000526020600020016000909192909190915055505050565b600073ffffffffffffffffffffffffffffffffffffffff168273ffffffffffffffffffffffffffffffffffffffff161415612439576040517f08c379a0000000000000000000000000000000000000000000000000000000008152600401612430906138ca565b60405180910390fd5b61244281611b83565b15612482576040517f08c379a0000000000000000000000000000000000000000000000000000000008152600401612479906137ca565b60405180910390fd5b816001600083815260200190815260200160002060006101000a81548173ffffffffffffffffffffffffffffffffffffffff021916908373ffffffffffffffffffffffffffffffffffffffff16021790555061251b600360008473ffffffffffffffffffffffffffffffffffffffff1673ffffffffffffffffffffffffffffffffffffffff1681526020019081526020016000206126bb565b808273ffffffffffffffffffffffffffffffffffffffff16600073ffffffffffffffffffffffffffffffffffffffff167fddf252ad1be2c89b69c2b068fc378daa952ba7f163c4a11628f55a4df523b3ef60405160405180910390a45050565b6007805490506008600083815260200190815260200160002081905550600781908060018154018082558091505090600182039060005260206000200160009091929091909150555050565b600080823b905060008111915050919050565b600073ffffffffffffffffffffffffffffffffffffffff166002600083815260200190815260200160002060009054906101000a900473ffffffffffffffffffffffffffffffffffffffff1673ffffffffffffffffffffffffffffffffffffffff16146126955760006002600083815260200190815260200160002060006101000a81548173ffffffffffffffffffffffffffffffffffffffff021916908373ffffffffffffffffffffffffffffffffffffffff1602179055505b50565b6126b0600182600001546126d190919063ffffffff16565b816000018190555050565b6001816000016000828254019250508190555050565b600082821115612716576040517f08c379a000000000000000000000000000000000000000000000000000000000815260040161270d9061382a565b60405180910390fd5b600082840390508091505092915050565b604051806060016040528060608152602001606081526020016000600281111561274d57fe5b81525090565b828054600181600116156101000203166002900490600052602060002090601f016020900481019282601f1061279457805160ff19168380011785556127c2565b828001600101855582156127c2579182015b828111156127c15782518255916020019190600101906127a6565b5b5090506127cf91906127ff565b5090565b8154818355818111156127fa578183600052602060002091820191016127f991906127ff565b5b505050565b61282191905b8082111561281d576000816000905550600101612805565b5090565b90565b60008135905061283381613c32565b92915050565b60008135905061284881613c49565b92915050565b60008135905061285d81613c60565b92915050565b60008151905061287281613c60565b92915050565b600082601f83011261288957600080fd5b813561289c612897826139f2565b6139c5565b915080825260208301602083018583830111156128b857600080fd5b6128c3838284613bd2565b50505092915050565b6000815190506128db81613c77565b92915050565b6000813590506128f081613c87565b92915050565b600082601f83011261290757600080fd5b815161291a61291582613a1e565b6139c5565b9150808252602083016020830185838301111561293657600080fd5b612941838284613be1565b50505092915050565b600082601f83011261295b57600080fd5b813561296e61296982613a4a565b6139c5565b9150808252602083016020830185838301111561298a57600080fd5b612995838284613bd2565b50505092915050565b6000606082840312156129b057600080fd5b6129ba60606139c5565b9050600082015167ffffffffffffffff8111156129d657600080fd5b6129e2848285016128f6565b600083015250602082015167ffffffffffffffff811115612a0257600080fd5b612a0e848285016128f6565b6020830152506040612a22848285016128cc565b60408301525092915050565b600081359050612a3d81613c97565b92915050565b600060208284031215612a5557600080fd5b6000612a6384828501612824565b91505092915050565b60008060408385031215612a7f57600080fd5b6000612a8d85828601612824565b9250506020612a9e85828601612824565b9150509250929050565b600080600060608486031215612abd57600080fd5b6000612acb86828701612824565b9350506020612adc86828701612824565b9250506040612aed86828701612a2e565b9150509250925092565b60008060008060808587031215612b0d57600080fd5b6000612b1b87828801612824565b9450506020612b2c87828801612824565b9350506040612b3d87828801612a2e565b925050606085013567ffffffffffffffff811115612b5a57600080fd5b612b6687828801612878565b91505092959194509250565b60008060408385031215612b8557600080fd5b6000612b9385828601612824565b9250506020612ba485828601612839565b9150509250929050565b60008060408385031215612bc157600080fd5b6000612bcf85828601612824565b9250506020612be085828601612a2e565b9150509250929050565b600060208284031215612bfc57600080fd5b6000612c0a8482850161284e565b91505092915050565b600060208284031215612c2557600080fd5b6000612c3384828501612863565b91505092915050565b60008060008060008060008060006101208a8c031215612c5b57600080fd5b60008a013567ffffffffffffffff811115612c7557600080fd5b612c818c828d0161294a565b99505060208a013567ffffffffffffffff811115612c9e57600080fd5b612caa8c828d0161294a565b98505060408a013567ffffffffffffffff811115612cc757600080fd5b612cd38c828d0161294a565b97505060608a013567ffffffffffffffff811115612cf057600080fd5b612cfc8c828d0161294a565b96505060808a013567ffffffffffffffff811115612d1957600080fd5b612d258c828d0161294a565b95505060a08a013567ffffffffffffffff811115612d4257600080fd5b612d4e8c828d0161294a565b94505060c0612d5f8c828d016128e1565b93505060e08a013567ffffffffffffffff811115612d7c57600080fd5b612d888c828d0161294a565b925050610100612d9a8c828d01612824565b9150509295985092959850929598565b600060208284031215612dbc57600080fd5b600082015167ffffffffffffffff811115612dd657600080fd5b612de28482850161299e565b91505092915050565b600060208284031215612dfd57600080fd5b6000612e0b84828501612a2e565b91505092915050565b6000612e208383612f4b565b905092915050565b612e3181613b8a565b82525050565b612e4081613b03565b82525050565b6000612e5182613a86565b612e5b8185613abf565b935083602082028501612e6d85613a76565b8060005b85811015612ea95784840389528151612e8a8582612e14565b9450612e9583613ab2565b925060208a01995050600181019050612e71565b50829750879550505050505092915050565b612ec481613b15565b82525050565b6000612ed582613a91565b612edf8185613ad0565b9350612eef818560208601613be1565b612ef881613c14565b840191505092915050565b612f0c81613b9c565b82525050565b6000612f1d82613aa7565b612f278185613af2565b9350612f37818560208601613be1565b612f4081613c14565b840191505092915050565b6000612f5682613a9c565b612f608185613ae1565b9350612f70818560208601613be1565b612f7981613c14565b840191505092915050565b6000612f8f82613a9c565b612f998185613af2565b9350612fa9818560208601613be1565b612fb281613c14565b840191505092915050565b6000612fca602b83613af2565b91507f455243373231456e756d657261626c653a206f776e657220696e646578206f7560008301527f74206f6620626f756e64730000000000000000000000000000000000000000006020830152604082019050919050565b6000613030603283613af2565b91507f4552433732313a207472616e7366657220746f206e6f6e20455243373231526560008301527f63656976657220696d706c656d656e74657200000000000000000000000000006020830152604082019050919050565b6000613096601c83613af2565b91507f4552433732313a20746f6b656e20616c7265616479206d696e746564000000006000830152602082019050919050565b60006130d6602483613af2565b91507f4552433732313a207472616e7366657220746f20746865207a65726f2061646460008301527f72657373000000000000000000000000000000000000000000000000000000006020830152604082019050919050565b600061313c601983613af2565b91507f4552433732313a20617070726f766520746f2063616c6c6572000000000000006000830152602082019050919050565b600061317c601e83613af2565b91507f536166654d6174683a207375627472616374696f6e206f766572666c6f7700006000830152602082019050919050565b60006131bc602c83613af2565b91507f4552433732313a206f70657261746f7220717565727920666f72206e6f6e657860008301527f697374656e7420746f6b656e00000000000000000000000000000000000000006020830152604082019050919050565b6000613222603883613af2565b91507f4552433732313a20617070726f76652063616c6c6572206973206e6f74206f7760008301527f6e6572206e6f7220617070726f76656420666f7220616c6c00000000000000006020830152604082019050919050565b6000613288602a83613af2565b91507f4552433732313a2062616c616e636520717565727920666f7220746865207a6560008301527f726f2061646472657373000000000000000000000000000000000000000000006020830152604082019050919050565b60006132ee602983613af2565b91507f4552433732313a206f776e657220717565727920666f72206e6f6e657869737460008301527f656e7420746f6b656e00000000000000000000000000000000000000000000006020830152604082019050919050565b6000613354602083613af2565b91507f4552433732313a206d696e7420746f20746865207a65726f20616464726573736000830152602082019050919050565b6000613394602c83613af2565b91507f4552433732313a20617070726f76656420717565727920666f72206e6f6e657860008301527f697374656e7420746f6b656e00000000000000000000000000000000000000006020830152604082019050919050565b60006133fa602983613af2565b91507f4552433732313a207472616e73666572206f6620746f6b656e2074686174206960008301527f73206e6f74206f776e00000000000000000000000000000000000000000000006020830152604082019050919050565b6000613460602f83613af2565b91507f4552433732314d657461646174613a2055524920717565727920666f72206e6f60008301527f6e6578697374656e7420746f6b656e00000000000000000000000000000000006020830152604082019050919050565b60006134c6602183613af2565b91507f4552433732313a20617070726f76616c20746f2063757272656e74206f776e6560008301527f72000000000000000000000000000000000000000000000000000000000000006020830152604082019050919050565b600061352c603183613af2565b91507f4552433732313a207472616e736665722063616c6c6572206973206e6f74206f60008301527f776e6572206e6f7220617070726f7665640000000000000000000000000000006020830152604082019050919050565b6000613592602c83613af2565b91507f455243373231456e756d657261626c653a20676c6f62616c20696e646578206f60008301527f7574206f6620626f756e647300000000000000000000000000000000000000006020830152604082019050919050565b6135f481613b80565b82525050565b600060208201905061360f6000830184612e37565b92915050565b600060208201905061362a6000830184612e28565b92915050565b60006080820190506136456000830187612e28565b6136526020830186612e37565b61365f60408301856135eb565b81810360608301526136718184612eca565b905095945050505050565b600060208201905081810360008301526136968184612e46565b905092915050565b60006020820190506136b36000830184612ebb565b92915050565b600060208201905081810360008301526136d38184612f12565b905092915050565b60006101008201905081810360008301526136f6818b612f84565b9050818103602083015261370a818a612f84565b9050818103604083015261371e8189612f84565b905081810360608301526137328188612f84565b905081810360808301526137468187612f84565b905081810360a083015261375a8186612f84565b905061376960c0830185612f03565b81810360e083015261377b8184612f84565b90509998505050505050505050565b600060208201905081810360008301526137a381612fbd565b9050919050565b600060208201905081810360008301526137c381613023565b9050919050565b600060208201905081810360008301526137e381613089565b9050919050565b60006020820190508181036000830152613803816130c9565b9050919050565b600060208201905081810360008301526138238161312f565b9050919050565b600060208201905081810360008301526138438161316f565b9050919050565b60006020820190508181036000830152613863816131af565b9050919050565b6000602082019050818103600083015261388381613215565b9050919050565b600060208201905081810360008301526138a38161327b565b9050919050565b600060208201905081810360008301526138c3816132e1565b9050919050565b600060208201905081810360008301526138e381613347565b9050919050565b6000602082019050818103600083015261390381613387565b9050919050565b60006020820190508181036000830152613923816133ed565b9050919050565b6000602082019050818103600083015261394381613453565b9050919050565b60006020820190508181036000830152613963816134b9565b9050919050565b600060208201905081810360008301526139838161351f565b9050919050565b600060208201905081810360008301526139a381613585565b9050919050565b60006020820190506139bf60008301846135eb565b92915050565b6000604051905081810181811067ffffffffffffffff821117156139e857600080fd5b8060405250919050565b600067ffffffffffffffff821115613a0957600080fd5b601f19601f8301169050602081019050919050565b600067ffffffffffffffff821115613a3557600080fd5b601f19601f8301169050602081019050919050565b600067ffffffffffffffff821115613a6157600080fd5b601f19601f8301169050602081019050919050565b6000819050602082019050919050565b600081519050919050565b600081519050919050565b600081519050919050565b600081519050919050565b6000602082019050919050565b600082825260208201905092915050565b600082825260208201905092915050565b600082825260208201905092915050565b600082825260208201905092915050565b6000613b0e82613b60565b9050919050565b60008115159050919050565b60007fffffffff0000000000000000000000000000000000000000000000000000000082169050919050565b6000819050613b5b82613c25565b919050565b600073ffffffffffffffffffffffffffffffffffffffff82169050919050565b6000819050919050565b6000613b9582613bae565b9050919050565b6000613ba782613b4d565b9050919050565b6000613bb982613bc0565b9050919050565b6000613bcb82613b60565b9050919050565b82818337600083830152505050565b60005b83811015613bff578082015181840152602081019050613be4565b83811115613c0e576000848401525b50505050565b6000601f19601f8301169050919050565b60038110613c2f57fe5b50565b613c3b81613b03565b8114613c4657600080fd5b50565b613c5281613b15565b8114613c5d57600080fd5b50565b613c6981613b21565b8114613c7457600080fd5b50565b60038110613c8457600080fd5b50565b60038110613c9457600080fd5b50565b613ca081613b80565b8114613cab57600080fd5b5056fea365627a7a7231582012152e8b0456c6084b68c50a34b490ac0cfc16c30ccab8e5d40328d5a00621826c6578706572696d656e74616cf564736f6c63430005100040",
  "source": "pragma solidity 0.5.16;\r\n\r\nimport \"./ERC721Full.sol\";\r\n\r\nimport \"./Profiles.sol\";\r\n\r\npragma experimental ABIEncoderV2;\r\n\r\ncontract Recipes is ERC721Full {\r\n\r\n    enum RecipeType{ VERDE, AMARILLO, MORADO }\r\n\r\n    struct Recipe {\r\n        string nombre;\r\n        string dosis;\r\n        string unidad;\r\n        string frecuencia;\r\n        string lapso;\r\n        string descripcion;\r\n        RecipeType tipo;\r\n        string id_creador;\r\n    }\r\n\r\n    Recipe[] public recipes;\r\n\r\n    constructor() ERC721Full(\"Recipe\", \"RECIPE\") public {\r\n    }\r\n\r\n    event addedRecipe();\r\n\r\n    function getRecipe(uint pos) external view returns(string[] memory){\r\n        string[] memory toReturn = new string[](8);\r\n        toReturn[0] = recipes[pos].nombre;\r\n        toReturn[1] = recipes[pos].dosis;\r\n        toReturn[2] = recipes[pos].unidad;\r\n        toReturn[3] = recipes[pos].frecuencia;\r\n        toReturn[4] = recipes[pos].lapso;\r\n        toReturn[5] = recipes[pos].descripcion;\r\n        toReturn[6] = getTypeAsString(recipes[pos].tipo);\r\n        toReturn[7] = recipes[pos].id_creador;\r\n        return toReturn;\r\n    }\r\n\r\n    function getTypeAsString(RecipeType tipo) private pure returns(string memory){\r\n        if(tipo==RecipeType.VERDE){\r\n            return '0';\r\n        }\r\n        if(tipo==RecipeType.AMARILLO){\r\n            return '1';\r\n        }\r\n        return '2';\r\n    }\r\n\r\n    function mint(\r\n        string memory _nombre,\r\n        string memory _dosis,\r\n        string memory _unidad,\r\n        string memory _frecuencia,\r\n        string memory _lapso,\r\n        string memory _descripcion,\r\n        RecipeType _tipo,\r\n        string memory _idCreador,\r\n        address profileAdr\r\n    ) public {\r\n        Profiles profilesImpl = Profiles(profileAdr);\r\n        Profiles.Profile memory profileData = profilesImpl.getProfileWithAdress(msg.sender);\r\n        if(profileData.tipo == Profiles.ProfileType.MEDICO){\r\n            uint _id = recipes.push(\r\n                Recipe(\r\n                    _nombre,\r\n                    _dosis,\r\n                    _unidad,\r\n                    _frecuencia,\r\n                    _lapso,\r\n                    _descripcion,\r\n                    _tipo,\r\n                    _idCreador\r\n                )\r\n            );\r\n            _mint(msg.sender, _id);\r\n            emit addedRecipe();\r\n        }\r\n    }\r\n\r\n}\r\n\r\n",
  "sourcePath": "C:\\Users\\phgom\\Documents\\GitHub\\medical_recipe_viewer\\contracts\\Recipes.sol",
  "compiler": {
    "name": "solc",
    "version": "0.5.16+commit.9c3226ce.Emscripten.clang"
  },
  "schemaVersion": "3.4.16",
  "updatedAt": "2025-03-25T12:35:57.012Z",
  "networkType": "ethereum",
  "devdoc": {
    "methods": {
      "approve(address,uint256)": {
        "details": "Approves another address to transfer the given token ID The zero address indicates there is no approved address. There can only be one approved address per token at a given time. Can only be called by the token owner or an approved operator.",
        "params": {
          "to": "address to be approved for the given token ID",
          "tokenId": "uint256 ID of the token to be approved"
        }
      },
      "balanceOf(address)": {
        "details": "Gets the balance of the specified address.",
        "params": {
          "owner": "address to query the balance of"
        },
        "return": "uint256 representing the amount owned by the passed address"
      },
      "getApproved(uint256)": {
        "details": "Gets the approved address for a token ID, or zero if no address set Reverts if the token ID does not exist.",
        "params": {
          "tokenId": "uint256 ID of the token to query the approval of"
        },
        "return": "address currently approved for the given token ID"
      },
      "isApprovedForAll(address,address)": {
        "details": "Tells whether an operator is approved by a given owner.",
        "params": {
          "operator": "operator address which you want to query the approval of",
          "owner": "owner address which you want to query the approval of"
        },
        "return": "bool whether the given operator is approved by the given owner"
      },
      "name()": {
        "details": "Gets the token name.",
        "return": "string representing the token name"
      },
      "ownerOf(uint256)": {
        "details": "Gets the owner of the specified token ID.",
        "params": {
          "tokenId": "uint256 ID of the token to query the owner of"
        },
        "return": "address currently marked as the owner of the given token ID"
      },
      "safeTransferFrom(address,address,uint256)": {
        "details": "Safely transfers the ownership of a given token ID to another address If the target address is a contract, it must implement `onERC721Received`, which is called upon a safe transfer, and return the magic value `bytes4(keccak256(\"onERC721Received(address,address,uint256,bytes)\"))`; otherwise, the transfer is reverted. Requires the msg.sender to be the owner, approved, or operator",
        "params": {
          "from": "current owner of the token",
          "to": "address to receive the ownership of the given token ID",
          "tokenId": "uint256 ID of the token to be transferred"
        }
      },
      "safeTransferFrom(address,address,uint256,bytes)": {
        "details": "Safely transfers the ownership of a given token ID to another address If the target address is a contract, it must implement `onERC721Received`, which is called upon a safe transfer, and return the magic value `bytes4(keccak256(\"onERC721Received(address,address,uint256,bytes)\"))`; otherwise, the transfer is reverted. Requires the msg.sender to be the owner, approved, or operator",
        "params": {
          "_data": "bytes data to send along with a safe transfer check",
          "from": "current owner of the token",
          "to": "address to receive the ownership of the given token ID",
          "tokenId": "uint256 ID of the token to be transferred"
        }
      },
      "setApprovalForAll(address,bool)": {
        "details": "Sets or unsets the approval of a given operator An operator is allowed to transfer all tokens of the sender on their behalf.",
        "params": {
          "approved": "representing the status of the approval to be set",
          "to": "operator address to set the approval"
        }
      },
      "supportsInterface(bytes4)": {
        "details": "See `IERC165.supportsInterface`.      * Time complexity O(1), guaranteed to always use less than 30 000 gas."
      },
      "symbol()": {
        "details": "Gets the token symbol.",
        "return": "string representing the token symbol"
      },
      "tokenByIndex(uint256)": {
        "details": "Gets the token ID at a given index of all the tokens in this contract Reverts if the index is greater or equal to the total number of tokens.",
        "params": {
          "index": "uint256 representing the index to be accessed of the tokens list"
        },
        "return": "uint256 token ID at the given index of the tokens list"
      },
      "tokenOfOwnerByIndex(address,uint256)": {
        "details": "Gets the token ID at a given index of the tokens list of the requested owner.",
        "params": {
          "index": "uint256 representing the index to be accessed of the requested tokens list",
          "owner": "address owning the tokens list to be accessed"
        },
        "return": "uint256 token ID at the given index of the tokens list owned by the requested address"
      },
      "tokenURI(uint256)": {
        "details": "Returns an URI for a given token ID. Throws if the token ID does not exist. May return an empty string.",
        "params": {
          "tokenId": "uint256 ID of the token to query"
        }
      },
      "totalSupply()": {
        "details": "Gets the total amount of tokens stored by the contract.",
        "return": "uint256 representing the total amount of tokens"
      },
      "transferFrom(address,address,uint256)": {
        "details": "Transfers the ownership of a given token ID to another address. Usage of this method is discouraged, use `safeTransferFrom` whenever possible. Requires the msg.sender to be the owner, approved, or operator.",
        "params": {
          "from": "current owner of the token",
          "to": "address to receive the ownership of the given token ID",
          "tokenId": "uint256 ID of the token to be transferred"
        }
      }
    }
  },
  "userdoc": {
    "methods": {}
  }
}