{
  "contractName": "Profiles",
  "abi": [
    {
      "inputs": [],
      "payable": false,
      "stateMutability": "nonpayable",
      "type": "constructor"
    },
    {
      "anonymous": false,
      "inputs": [
        {
          "indexed": true,
          "internalType": "address",
          "name": "owner",
          "type": "address"
        },
        {
          "indexed": true,
          "internalType": "address",
          "name": "approved",
          "type": "address"
        },
        {
          "indexed": true,
          "internalType": "uint256",
          "name": "tokenId",
          "type": "uint256"
        }
      ],
      "name": "Approval",
      "type": "event"
    },
    {
      "anonymous": false,
      "inputs": [
        {
          "indexed": true,
          "internalType": "address",
          "name": "owner",
          "type": "address"
        },
        {
          "indexed": true,
          "internalType": "address",
          "name": "operator",
          "type": "address"
        },
        {
          "indexed": false,
          "internalType": "bool",
          "name": "approved",
          "type": "bool"
        }
      ],
      "name": "ApprovalForAll",
      "type": "event"
    },
    {
      "anonymous": false,
      "inputs": [
        {
          "indexed": true,
          "internalType": "address",
          "name": "from",
          "type": "address"
        },
        {
          "indexed": true,
          "internalType": "address",
          "name": "to",
          "type": "address"
        },
        {
          "indexed": true,
          "internalType": "uint256",
          "name": "tokenId",
          "type": "uint256"
        }
      ],
      "name": "Transfer",
      "type": "event"
    },
    {
      "anonymous": false,
      "inputs": [],
      "name": "addedUser",
      "type": "event"
    },
    {
      "constant": false,
      "inputs": [
        {
          "internalType": "address",
          "name": "to",
          "type": "address"
        },
        {
          "internalType": "uint256",
          "name": "tokenId",
          "type": "uint256"
        }
      ],
      "name": "approve",
      "outputs": [],
      "payable": false,
      "stateMutability": "nonpayable",
      "type": "function"
    },
    {
      "constant": true,
      "inputs": [
        {
          "internalType": "address",
          "name": "owner",
          "type": "address"
        }
      ],
      "name": "balanceOf",
      "outputs": [
        {
          "internalType": "uint256",
          "name": "",
          "type": "uint256"
        }
      ],
      "payable": false,
      "stateMutability": "view",
      "type": "function"
    },
    {
      "constant": true,
      "inputs": [
        {
          "internalType": "uint256",
          "name": "tokenId",
          "type": "uint256"
        }
      ],
      "name": "getApproved",
      "outputs": [
        {
          "internalType": "address",
          "name": "",
          "type": "address"
        }
      ],
      "payable": false,
      "stateMutability": "view",
      "type": "function"
    },
    {
      "constant": true,
      "inputs": [
        {
          "internalType": "address",
          "name": "owner",
          "type": "address"
        },
        {
          "internalType": "address",
          "name": "operator",
          "type": "address"
        }
      ],
      "name": "isApprovedForAll",
      "outputs": [
        {
          "internalType": "bool",
          "name": "",
          "type": "bool"
        }
      ],
      "payable": false,
      "stateMutability": "view",
      "type": "function"
    },
    {
      "constant": true,
      "inputs": [],
      "name": "name",
      "outputs": [
        {
          "internalType": "string",
          "name": "",
          "type": "string"
        }
      ],
      "payable": false,
      "stateMutability": "view",
      "type": "function"
    },
    {
      "constant": true,
      "inputs": [
        {
          "internalType": "uint256",
          "name": "tokenId",
          "type": "uint256"
        }
      ],
      "name": "ownerOf",
      "outputs": [
        {
          "internalType": "address",
          "name": "",
          "type": "address"
        }
      ],
      "payable": false,
      "stateMutability": "view",
      "type": "function"
    },
    {
      "constant": true,
      "inputs": [
        {
          "internalType": "uint256",
          "name": "",
          "type": "uint256"
        }
      ],
      "name": "profiles",
      "outputs": [
        {
          "internalType": "string",
          "name": "id",
          "type": "string"
        },
        {
          "internalType": "string",
          "name": "nombre",
          "type": "string"
        },
        {
          "internalType": "enum Profiles.ProfileType",
          "name": "tipo",
          "type": "uint8"
        }
      ],
      "payable": false,
      "stateMutability": "view",
      "type": "function"
    },
    {
      "constant": false,
      "inputs": [
        {
          "internalType": "address",
          "name": "from",
          "type": "address"
        },
        {
          "internalType": "address",
          "name": "to",
          "type": "address"
        },
        {
          "internalType": "uint256",
          "name": "tokenId",
          "type": "uint256"
        }
      ],
      "name": "safeTransferFrom",
      "outputs": [],
      "payable": false,
      "stateMutability": "nonpayable",
      "type": "function"
    },
    {
      "constant": false,
      "inputs": [
        {
          "internalType": "address",
          "name": "from",
          "type": "address"
        },
        {
          "internalType": "address",
          "name": "to",
          "type": "address"
        },
        {
          "internalType": "uint256",
          "name": "tokenId",
          "type": "uint256"
        },
        {
          "internalType": "bytes",
          "name": "_data",
          "type": "bytes"
        }
      ],
      "name": "safeTransferFrom",
      "outputs": [],
      "payable": false,
      "stateMutability": "nonpayable",
      "type": "function"
    },
    {
      "constant": false,
      "inputs": [
        {
          "internalType": "address",
          "name": "to",
          "type": "address"
        },
        {
          "internalType": "bool",
          "name": "approved",
          "type": "bool"
        }
      ],
      "name": "setApprovalForAll",
      "outputs": [],
      "payable": false,
      "stateMutability": "nonpayable",
      "type": "function"
    },
    {
      "constant": true,
      "inputs": [
        {
          "internalType": "bytes4",
          "name": "interfaceId",
          "type": "bytes4"
        }
      ],
      "name": "supportsInterface",
      "outputs": [
        {
          "internalType": "bool",
          "name": "",
          "type": "bool"
        }
      ],
      "payable": false,
      "stateMutability": "view",
      "type": "function"
    },
    {
      "constant": true,
      "inputs": [],
      "name": "symbol",
      "outputs": [
        {
          "internalType": "string",
          "name": "",
          "type": "string"
        }
      ],
      "payable": false,
      "stateMutability": "view",
      "type": "function"
    },
    {
      "constant": true,
      "inputs": [
        {
          "internalType": "uint256",
          "name": "index",
          "type": "uint256"
        }
      ],
      "name": "tokenByIndex",
      "outputs": [
        {
          "internalType": "uint256",
          "name": "",
          "type": "uint256"
        }
      ],
      "payable": false,
      "stateMutability": "view",
      "type": "function"
    },
    {
      "constant": true,
      "inputs": [
        {
          "internalType": "address",
          "name": "owner",
          "type": "address"
        },
        {
          "internalType": "uint256",
          "name": "index",
          "type": "uint256"
        }
      ],
      "name": "tokenOfOwnerByIndex",
      "outputs": [
        {
          "internalType": "uint256",
          "name": "",
          "type": "uint256"
        }
      ],
      "payable": false,
      "stateMutability": "view",
      "type": "function"
    },
    {
      "constant": true,
      "inputs": [
        {
          "internalType": "uint256",
          "name": "tokenId",
          "type": "uint256"
        }
      ],
      "name": "tokenURI",
      "outputs": [
        {
          "internalType": "string",
          "name": "",
          "type": "string"
        }
      ],
      "payable": false,
      "stateMutability": "view",
      "type": "function"
    },
    {
      "constant": true,
      "inputs": [],
      "name": "totalSupply",
      "outputs": [
        {
          "internalType": "uint256",
          "name": "",
          "type": "uint256"
        }
      ],
      "payable": false,
      "stateMutability": "view",
      "type": "function"
    },
    {
      "constant": true,
      "inputs": [
        {
          "internalType": "address",
          "name": "owner",
          "type": "address"
        }
      ],
      "name": "getProfileWithAdress",
      "outputs": [
        {
          "components": [
            {
              "internalType": "string",
              "name": "id",
              "type": "string"
            },
            {
              "internalType": "string",
              "name": "nombre",
              "type": "string"
            },
            {
              "internalType": "enum Profiles.ProfileType",
              "name": "tipo",
              "type": "uint8"
            }
          ],
          "internalType": "struct Profiles.Profile",
          "name": "",
          "type": "tuple"
        }
      ],
      "payable": false,
      "stateMutability": "view",
      "type": "function"
    },
    {
      "constant": false,
      "inputs": [
        {
          "internalType": "string",
          "name": "id",
          "type": "string"
        },
        {
          "internalType": "string",
          "name": "nombre",
          "type": "string"
        },
        {
          "internalType": "enum Profiles.ProfileType",
          "name": "tipo",
          "type": "uint8"
        }
      ],
      "name": "addNewProfile",
      "outputs": [],
      "payable": false,
      "stateMutability": "nonpayable",
      "type": "function"
    },
    {
      "constant": false,
      "inputs": [
        {
          "internalType": "address",
          "name": "from",
          "type": "address"
        },
        {
          "internalType": "address",
          "name": "to",
          "type": "address"
        },
        {
          "internalType": "uint256",
          "name": "tokenId",
          "type": "uint256"
        }
      ],
      "name": "transferFrom",
      "outputs": [],
      "payable": false,
      "stateMutability": "nonpayable",
      "type": "function"
    }
  ],
  "bytecode": "0x60806040523480156200001157600080fd5b506040518060400160405280600781526020017f50726f66696c65000000000000000000000000000000000000000000000000008152506040518060400160405280600781526020017f50524f46494c45000000000000000000000000000000000000000000000000008152508181620000986301ffc9a760e01b6200011c60201b60201c565b620000b06380ac58cd60e01b6200011c60201b60201c565b620000c863780e9d6360e01b6200011c60201b60201c565b8160099080519060200190620000e0929190620001f4565b5080600a9080519060200190620000f9929190620001f4565b5062000112635b5e139f60e01b6200011c60201b60201c565b5050505062000318565b63ffffffff60e01b817bffffffffffffffffffffffffffffffffffffffffffffffffffffffff1916141562000188576040517f08c379a00000000000000000000000000000000000000000000000000000000081526004016200017f90620002e5565b60405180910390fd5b6001600080837bffffffffffffffffffffffffffffffffffffffffffffffffffffffff19167bffffffffffffffffffffffffffffffffffffffffffffffffffffffff1916815260200190815260200160002060006101000a81548160ff02191690831515021790555050565b828054600181600116156101000203166002900490600052602060002090601f016020900481019282601f106200023757805160ff191683800117855562000268565b8280016001018555821562000268579182015b82811115620002675782518255916020019190600101906200024a565b5b5090506200027791906200027b565b5090565b620002a091905b808211156200029c57600081600090555060010162000282565b5090565b90565b6000620002b2601c8362000307565b91507f4552433136353a20696e76616c696420696e74657266616365206964000000006000830152602082019050919050565b600060208201905081810360008301526200030081620002a3565b9050919050565b600082825260208201905092915050565b61277d80620003286000396000f3fe608060405234801561001057600080fd5b50600436106101215760003560e01c80636352211e116100ad578063b0cfeff911610071578063b0cfeff91461032c578063b88d4fde1461035c578063c36fe3d614610378578063c87b56dd146103aa578063e985e9c5146103da57610121565b80636352211e1461027657806370a08231146102a657806395d89b41146102d6578063a22cb465146102f4578063ad2b69241461031057610121565b806318160ddd116100f457806318160ddd146101c057806323b872dd146101de5780632f745c59146101fa57806342842e0e1461022a5780634f6ccce71461024657610121565b806301ffc9a71461012657806306fdde0314610156578063081812fc14610174578063095ea7b3146101a4575b600080fd5b610140600480360361013b9190810190611ae8565b61040a565b60405161014d919061227c565b60405180910390f35b61015e610471565b60405161016b9190612297565b60405180910390f35b61018e60048036036101899190810190611bb9565b610513565b60405161019b9190612215565b60405180910390f35b6101be60048036036101b99190810190611aac565b610598565b005b6101c8610745565b6040516101d591906124a0565b60405180910390f35b6101f860048036036101f391908101906119a6565b610752565b005b610214600480360361020f9190810190611aac565b610757565b60405161022191906124a0565b60405180910390f35b610244600480360361023f91908101906119a6565b610800565b005b610260600480360361025b9190810190611bb9565b610820565b60405161026d91906124a0565b60405180910390f35b610290600480360361028b9190810190611bb9565b61088a565b60405161029d9190612215565b60405180910390f35b6102c060048036036102bb9190810190611941565b61093c565b6040516102cd91906124a0565b60405180910390f35b6102de6109fb565b6040516102eb9190612297565b60405180910390f35b61030e60048036036103099190810190611a70565b610a9d565b005b61032a60048036036103259190810190611b3a565b610c09565b005b61034660048036036103419190810190611941565b610d6e565b604051610353919061247e565b60405180910390f35b610376600480360361037191908101906119f5565b610f43565b005b610392600480360361038d9190810190611bb9565b610f9f565b6040516103a1939291906122b9565b60405180910390f35b6103c460048036036103bf9190810190611bb9565b611113565b6040516103d19190612297565b60405180910390f35b6103f460048036036103ef919081019061196a565b611210565b604051610401919061227c565b60405180910390f35b6000806000837bffffffffffffffffffffffffffffffffffffffffffffffffffffffff19167bffffffffffffffffffffffffffffffffffffffffffffffffffffffff1916815260200190815260200160002060009054906101000a900460ff169050919050565b606060098054600181600116156101000203166002900480601f0160208091040260200160405190810160405280929190818152602001828054600181600116156101000203166002900480156105095780601f106104de57610100808354040283529160200191610509565b820191906000526020600020905b8154815290600101906020018083116104ec57829003601f168201915b5050505050905090565b600061051e826112a4565b61055d576040517f08c379a0000000000000000000000000000000000000000000000000000000008152600401610554906123fe565b60405180910390fd5b6002600083815260200190815260200160002060009054906101000a900473ffffffffffffffffffffffffffffffffffffffff169050919050565b60006105a38261088a565b90508073ffffffffffffffffffffffffffffffffffffffff168373ffffffffffffffffffffffffffffffffffffffff161415610614576040517f08c379a000000000000000000000000000000000000000000000000000000000815260040161060b9061243e565b60405180910390fd5b8073ffffffffffffffffffffffffffffffffffffffff163373ffffffffffffffffffffffffffffffffffffffff16148061065457506106538133611210565b5b610693576040517f08c379a000000000000000000000000000000000000000000000000000000000815260040161068a9061237e565b60405180910390fd5b826002600084815260200190815260200160002060006101000a81548173ffffffffffffffffffffffffffffffffffffffff021916908373ffffffffffffffffffffffffffffffffffffffff160217905550818373ffffffffffffffffffffffffffffffffffffffff168273ffffffffffffffffffffffffffffffffffffffff167f8c5be1e5ebec7d5bd14f71427d1e84f3dd0314c0f7b2291e5b200ac8c7c3b92560405160405180910390a4505050565b6000600780549050905090565b505050565b60006107628361093c565b82106107a3576040517f08c379a000000000000000000000000000000000000000000000000000000000815260040161079a906122fe565b60405180910390fd5b600560008473ffffffffffffffffffffffffffffffffffffffff1673ffffffffffffffffffffffffffffffffffffffff16815260200190815260200160002082815481106107ed57fe5b9060005260206000200154905092915050565b61081b83838360405180602001604052806000815250610f43565b505050565b600061082a610745565b821061086b576040517f08c379a00000000000000000000000000000000000000000000000000000000081526004016108629061245e565b60405180910390fd5b6007828154811061087857fe5b90600052602060002001549050919050565b6000806001600084815260200190815260200160002060009054906101000a900473ffffffffffffffffffffffffffffffffffffffff169050600073ffffffffffffffffffffffffffffffffffffffff168173ffffffffffffffffffffffffffffffffffffffff161415610933576040517f08c379a000000000000000000000000000000000000000000000000000000000815260040161092a906123be565b60405180910390fd5b80915050919050565b60008073ffffffffffffffffffffffffffffffffffffffff168273ffffffffffffffffffffffffffffffffffffffff1614156109ad576040517f08c379a00000000000000000000000000000000000000000000000000000000081526004016109a49061239e565b60405180910390fd5b6109f4600360008473ffffffffffffffffffffffffffffffffffffffff1673ffffffffffffffffffffffffffffffffffffffff168152602001908152602001600020611316565b9050919050565b6060600a8054600181600116156101000203166002900480601f016020809104026020016040519081016040528092919081815260200182805460018160011615610100020316600290048015610a935780601f10610a6857610100808354040283529160200191610a93565b820191906000526020600020905b815481529060010190602001808311610a7657829003601f168201915b5050505050905090565b3373ffffffffffffffffffffffffffffffffffffffff168273ffffffffffffffffffffffffffffffffffffffff161415610b0c576040517f08c379a0000000000000000000000000000000000000000000000000000000008152600401610b039061235e565b60405180910390fd5b80600460003373ffffffffffffffffffffffffffffffffffffffff1673ffffffffffffffffffffffffffffffffffffffff16815260200190815260200160002060008473ffffffffffffffffffffffffffffffffffffffff1673ffffffffffffffffffffffffffffffffffffffff16815260200190815260200160002060006101000a81548160ff0219169083151502179055508173ffffffffffffffffffffffffffffffffffffffff163373ffffffffffffffffffffffffffffffffffffffff167f17307eab39ab6107e8899845ad3d59bd9653f200f220920489ca2b5937696c3183604051610bfd919061227c565b60405180910390a35050565b600d83604051610c1991906121fe565b908152602001604051809103902060009054906101000a900460ff1615610c3f57600080fd5b6000600c6040518060600160405280868152602001858152602001846002811115610c6657fe5b815250908060018154018082558091505090600182039060005260206000209060030201600090919290919091506000820151816000019080519060200190610cb092919061174a565b506020820151816001019080519060200190610ccd92919061174a565b5060408201518160020160006101000a81548160ff02191690836002811115610cf257fe5b021790555050509050610d053382611324565b6001600d85604051610d1791906121fe565b908152602001604051809103902060006101000a81548160ff0219169083151502179055507fcd762b93d9a38b0fc2b74338ba2196bd60f43c1b8242432450f649e74ba4b61e60405160405180910390a150505050565b610d766117ca565b6000610d818361093c565b90506000610d928460018403610757565b9050610d9c6117ca565b600c6001830381548110610dac57fe5b9060005260206000209060030201604051806060016040529081600082018054600181600116156101000203166002900480601f016020809104026020016040519081016040528092919081815260200182805460018160011615610100020316600290048015610e5e5780601f10610e3357610100808354040283529160200191610e5e565b820191906000526020600020905b815481529060010190602001808311610e4157829003601f168201915b50505050508152602001600182018054600181600116156101000203166002900480601f016020809104026020016040519081016040528092919081815260200182805460018160011615610100020316600290048015610f005780601f10610ed557610100808354040283529160200191610f00565b820191906000526020600020905b815481529060010190602001808311610ee357829003601f168201915b505050505081526020016002820160009054906101000a900460ff166002811115610f2757fe5b6002811115610f3257fe5b815250509050809350505050919050565b610f4e848484610752565b610f5a84848484611345565b610f99576040517f08c379a0000000000000000000000000000000000000000000000000000000008152600401610f909061231e565b60405180910390fd5b50505050565b600c8181548110610fac57fe5b9060005260206000209060030201600091509050806000018054600181600116156101000203166002900480601f0160208091040260200160405190810160405280929190818152602001828054600181600116156101000203166002900480156110585780601f1061102d57610100808354040283529160200191611058565b820191906000526020600020905b81548152906001019060200180831161103b57829003601f168201915b505050505090806001018054600181600116156101000203166002900480601f0160208091040260200160405190810160405280929190818152602001828054600181600116156101000203166002900480156110f65780601f106110cb576101008083540402835291602001916110f6565b820191906000526020600020905b8154815290600101906020018083116110d957829003601f168201915b5050505050908060020160009054906101000a900460ff16905083565b606061111e826112a4565b61115d576040517f08c379a00000000000000000000000000000000000000000000000000000000081526004016111549061241e565b60405180910390fd5b600b60008381526020019081526020016000208054600181600116156101000203166002900480601f0160208091040260200160405190810160405280929190818152602001828054600181600116156101000203166002900480156112045780601f106111d957610100808354040283529160200191611204565b820191906000526020600020905b8154815290600101906020018083116111e757829003601f168201915b50505050509050919050565b6000600460008473ffffffffffffffffffffffffffffffffffffffff1673ffffffffffffffffffffffffffffffffffffffff16815260200190815260200160002060008373ffffffffffffffffffffffffffffffffffffffff1673ffffffffffffffffffffffffffffffffffffffff16815260200190815260200160002060009054906101000a900460ff16905092915050565b6000806001600084815260200190815260200160002060009054906101000a900473ffffffffffffffffffffffffffffffffffffffff169050600073ffffffffffffffffffffffffffffffffffffffff168173ffffffffffffffffffffffffffffffffffffffff161415915050919050565b600081600001549050919050565b61132e828261145c565b611338828261160e565b611341816116d5565b5050565b60006113668473ffffffffffffffffffffffffffffffffffffffff16611721565b6113735760019050611454565b60008473ffffffffffffffffffffffffffffffffffffffff1663150b7a02338887876040518563ffffffff1660e01b81526004016113b49493929190612230565b602060405180830381600087803b1580156113ce57600080fd5b505af11580156113e2573d6000803e3d6000fd5b505050506040513d601f19601f820116820180604052506114069190810190611b11565b905063150b7a0260e01b7bffffffffffffffffffffffffffffffffffffffffffffffffffffffff1916817bffffffffffffffffffffffffffffffffffffffffffffffffffffffff1916149150505b949350505050565b600073ffffffffffffffffffffffffffffffffffffffff168273ffffffffffffffffffffffffffffffffffffffff1614156114cc576040517f08c379a00000000000000000000000000000000000000000000000000000000081526004016114c3906123de565b60405180910390fd5b6114d5816112a4565b15611515576040517f08c379a000000000000000000000000000000000000000000000000000000000815260040161150c9061233e565b60405180910390fd5b816001600083815260200190815260200160002060006101000a81548173ffffffffffffffffffffffffffffffffffffffff021916908373ffffffffffffffffffffffffffffffffffffffff1602179055506115ae600360008473ffffffffffffffffffffffffffffffffffffffff1673ffffffffffffffffffffffffffffffffffffffff168152602001908152602001600020611734565b808273ffffffffffffffffffffffffffffffffffffffff16600073ffffffffffffffffffffffffffffffffffffffff167fddf252ad1be2c89b69c2b068fc378daa952ba7f163c4a11628f55a4df523b3ef60405160405180910390a45050565b600560008373ffffffffffffffffffffffffffffffffffffffff1673ffffffffffffffffffffffffffffffffffffffff168152602001908152602001600020805490506006600083815260200190815260200160002081905550600560008373ffffffffffffffffffffffffffffffffffffffff1673ffffffffffffffffffffffffffffffffffffffff1681526020019081526020016000208190806001815401808255809150509060018203906000526020600020016000909192909190915055505050565b6007805490506008600083815260200190815260200160002081905550600781908060018154018082558091505090600182039060005260206000200160009091929091909150555050565b600080823b905060008111915050919050565b6001816000016000828254019250508190555050565b828054600181600116156101000203166002900490600052602060002090601f016020900481019282601f1061178b57805160ff19168380011785556117b9565b828001600101855582156117b9579182015b828111156117b857825182559160200191906001019061179d565b5b5090506117c691906117f6565b5090565b60405180606001604052806060815260200160608152602001600060028111156117f057fe5b81525090565b61181891905b808211156118145760008160009055506001016117fc565b5090565b90565b60008135905061182a816126ce565b92915050565b60008135905061183f816126e5565b92915050565b600081359050611854816126fc565b92915050565b600081519050611869816126fc565b92915050565b600082601f83011261188057600080fd5b813561189361188e826124e8565b6124bb565b915080825260208301602083018583830111156118af57600080fd5b6118ba83828461266e565b50505092915050565b6000813590506118d281612713565b92915050565b600082601f8301126118e957600080fd5b81356118fc6118f782612514565b6124bb565b9150808252602083016020830185838301111561191857600080fd5b61192383828461266e565b50505092915050565b60008135905061193b81612723565b92915050565b60006020828403121561195357600080fd5b60006119618482850161181b565b91505092915050565b6000806040838503121561197d57600080fd5b600061198b8582860161181b565b925050602061199c8582860161181b565b9150509250929050565b6000806000606084860312156119bb57600080fd5b60006119c98682870161181b565b93505060206119da8682870161181b565b92505060406119eb8682870161192c565b9150509250925092565b60008060008060808587031215611a0b57600080fd5b6000611a198782880161181b565b9450506020611a2a8782880161181b565b9350506040611a3b8782880161192c565b925050606085013567ffffffffffffffff811115611a5857600080fd5b611a648782880161186f565b91505092959194509250565b60008060408385031215611a8357600080fd5b6000611a918582860161181b565b9250506020611aa285828601611830565b9150509250929050565b60008060408385031215611abf57600080fd5b6000611acd8582860161181b565b9250506020611ade8582860161192c565b9150509250929050565b600060208284031215611afa57600080fd5b6000611b0884828501611845565b91505092915050565b600060208284031215611b2357600080fd5b6000611b318482850161185a565b91505092915050565b600080600060608486031215611b4f57600080fd5b600084013567ffffffffffffffff811115611b6957600080fd5b611b75868287016118d8565b935050602084013567ffffffffffffffff811115611b9257600080fd5b611b9e868287016118d8565b9250506040611baf868287016118c3565b9150509250925092565b600060208284031215611bcb57600080fd5b6000611bd98482850161192c565b91505092915050565b611beb81612626565b82525050565b611bfa8161259f565b82525050565b611c09816125b1565b82525050565b6000611c1a82612540565b611c248185612561565b9350611c3481856020860161267d565b611c3d816126b0565b840191505092915050565b611c5181612638565b82525050565b611c6081612638565b82525050565b6000611c7182612556565b611c7b8185612583565b9350611c8b81856020860161267d565b611c94816126b0565b840191505092915050565b6000611caa82612556565b611cb48185612594565b9350611cc481856020860161267d565b80840191505092915050565b6000611cdb8261254b565b611ce58185612572565b9350611cf581856020860161267d565b611cfe816126b0565b840191505092915050565b6000611d148261254b565b611d1e8185612583565b9350611d2e81856020860161267d565b611d37816126b0565b840191505092915050565b6000611d4f602b83612583565b91507f455243373231456e756d657261626c653a206f776e657220696e646578206f7560008301527f74206f6620626f756e64730000000000000000000000000000000000000000006020830152604082019050919050565b6000611db5603283612583565b91507f4552433732313a207472616e7366657220746f206e6f6e20455243373231526560008301527f63656976657220696d706c656d656e74657200000000000000000000000000006020830152604082019050919050565b6000611e1b601c83612583565b91507f4552433732313a20746f6b656e20616c7265616479206d696e746564000000006000830152602082019050919050565b6000611e5b601983612583565b91507f4552433732313a20617070726f766520746f2063616c6c6572000000000000006000830152602082019050919050565b6000611e9b603883612583565b91507f4552433732313a20617070726f76652063616c6c6572206973206e6f74206f7760008301527f6e6572206e6f7220617070726f76656420666f7220616c6c00000000000000006020830152604082019050919050565b6000611f01602a83612583565b91507f4552433732313a2062616c616e636520717565727920666f7220746865207a6560008301527f726f2061646472657373000000000000000000000000000000000000000000006020830152604082019050919050565b6000611f67602983612583565b91507f4552433732313a206f776e657220717565727920666f72206e6f6e657869737460008301527f656e7420746f6b656e00000000000000000000000000000000000000000000006020830152604082019050919050565b6000611fcd602083612583565b91507f4552433732313a206d696e7420746f20746865207a65726f20616464726573736000830152602082019050919050565b600061200d602c83612583565b91507f4552433732313a20617070726f76656420717565727920666f72206e6f6e657860008301527f697374656e7420746f6b656e00000000000000000000000000000000000000006020830152604082019050919050565b6000612073602f83612583565b91507f4552433732314d657461646174613a2055524920717565727920666f72206e6f60008301527f6e6578697374656e7420746f6b656e00000000000000000000000000000000006020830152604082019050919050565b60006120d9602183612583565b91507f4552433732313a20617070726f76616c20746f2063757272656e74206f776e6560008301527f72000000000000000000000000000000000000000000000000000000000000006020830152604082019050919050565b600061213f602c83612583565b91507f455243373231456e756d657261626c653a20676c6f62616c20696e646578206f60008301527f7574206f6620626f756e647300000000000000000000000000000000000000006020830152604082019050919050565b600060608301600083015184820360008601526121b58282611cd0565b915050602083015184820360208601526121cf8282611cd0565b91505060408301516121e46040860182611c48565b508091505092915050565b6121f88161261c565b82525050565b600061220a8284611c9f565b915081905092915050565b600060208201905061222a6000830184611bf1565b92915050565b60006080820190506122456000830187611be2565b6122526020830186611bf1565b61225f60408301856121ef565b81810360608301526122718184611c0f565b905095945050505050565b60006020820190506122916000830184611c00565b92915050565b600060208201905081810360008301526122b18184611c66565b905092915050565b600060608201905081810360008301526122d38186611d09565b905081810360208301526122e78185611d09565b90506122f66040830184611c57565b949350505050565b6000602082019050818103600083015261231781611d42565b9050919050565b6000602082019050818103600083015261233781611da8565b9050919050565b6000602082019050818103600083015261235781611e0e565b9050919050565b6000602082019050818103600083015261237781611e4e565b9050919050565b6000602082019050818103600083015261239781611e8e565b9050919050565b600060208201905081810360008301526123b781611ef4565b9050919050565b600060208201905081810360008301526123d781611f5a565b9050919050565b600060208201905081810360008301526123f781611fc0565b9050919050565b6000602082019050818103600083015261241781612000565b9050919050565b6000602082019050818103600083015261243781612066565b9050919050565b60006020820190508181036000830152612457816120cc565b9050919050565b6000602082019050818103600083015261247781612132565b9050919050565b600060208201905081810360008301526124988184612198565b905092915050565b60006020820190506124b560008301846121ef565b92915050565b6000604051905081810181811067ffffffffffffffff821117156124de57600080fd5b8060405250919050565b600067ffffffffffffffff8211156124ff57600080fd5b601f19601f8301169050602081019050919050565b600067ffffffffffffffff82111561252b57600080fd5b601f19601f8301169050602081019050919050565b600081519050919050565b600081519050919050565b600081519050919050565b600082825260208201905092915050565b600082825260208201905092915050565b600082825260208201905092915050565b600081905092915050565b60006125aa826125fc565b9050919050565b60008115159050919050565b60007fffffffff0000000000000000000000000000000000000000000000000000000082169050919050565b60008190506125f7826126c1565b919050565b600073ffffffffffffffffffffffffffffffffffffffff82169050919050565b6000819050919050565b60006126318261264a565b9050919050565b6000612643826125e9565b9050919050565b60006126558261265c565b9050919050565b6000612667826125fc565b9050919050565b82818337600083830152505050565b60005b8381101561269b578082015181840152602081019050612680565b838111156126aa576000848401525b50505050565b6000601f19601f8301169050919050565b600381106126cb57fe5b50565b6126d78161259f565b81146126e257600080fd5b50565b6126ee816125b1565b81146126f957600080fd5b50565b612705816125bd565b811461271057600080fd5b50565b6003811061272057600080fd5b50565b61272c8161261c565b811461273757600080fd5b5056fea365627a7a72315820a44933a8101dd330288286562000fb52181003fbcfdfbdceb64e71a76c306a196c6578706572696d656e74616cf564736f6c63430005100040",
  "source": "pragma solidity 0.5.16;\r\n\r\nimport \"./ERC721Full.sol\";\r\n\r\npragma experimental ABIEncoderV2;\r\n\r\ncontract Profiles is ERC721Full {\r\n\r\n    enum ProfileType{ MEDICO, PACIENTE, FARMACIA }\r\n\r\n    struct Profile {\r\n        string id;\r\n        string nombre;\r\n        ProfileType tipo;\r\n    }\r\n\r\n    Profile[] public profiles;\r\n\r\n    mapping(string => bool) _profileExists;\r\n\r\n    constructor() ERC721Full(\"Profile\", \"PROFILE\") public {\r\n    }\r\n\r\n    event addedUser();\r\n\r\n    function getProfileWithAdress(address owner) external view returns(Profile memory){\r\n        uint256 balance = balanceOf(owner);\r\n        uint256 index = tokenOfOwnerByIndex(owner, balance-1);\r\n        Profile memory profileData = profiles[index-1];\r\n        return profileData;\r\n    }\r\n\r\n    function addNewProfile(\r\n        string memory id,\r\n        string memory  nombre,\r\n        ProfileType tipo\r\n    ) public {\r\n        require(!_profileExists[id]);\r\n        uint _id = profiles.push(\r\n            Profile(\r\n                id,\r\n                nombre,\r\n                tipo\r\n            )\r\n        );\r\n        _mint(msg.sender, _id);\r\n        _profileExists[id] = true;\r\n        emit addedUser();\r\n    }\r\n\r\n    function transferFrom(address from, address to, uint256 tokenId) public {\r\n        //void method to avoid the transfer of profile NFT's\r\n    }\r\n\r\n}\r\n",
  "sourcePath": "C:\\Users\\phgom\\Documents\\GitHub\\medical_recipe_viewer\\contracts\\Profiles.sol",
  "compiler": {
    "name": "solc",
    "version": "0.5.16+commit.9c3226ce.Emscripten.clang"
  },
  "schemaVersion": "3.4.16",
  "updatedAt": "2025-04-26T15:24:06.864Z",
  "networkType": "ethereum",
  "devdoc": {
    "methods": {
      "approve(address,uint256)": {
        "details": "Approves another address to transfer the given token ID The zero address indicates there is no approved address. There can only be one approved address per token at a given time. Can only be called by the token owner or an approved operator.",
        "params": {
          "to": "address to be approved for the given token ID",
          "tokenId": "uint256 ID of the token to be approved"
        }
      },
      "balanceOf(address)": {
        "details": "Gets the balance of the specified address.",
        "params": {
          "owner": "address to query the balance of"
        },
        "return": "uint256 representing the amount owned by the passed address"
      },
      "getApproved(uint256)": {
        "details": "Gets the approved address for a token ID, or zero if no address set Reverts if the token ID does not exist.",
        "params": {
          "tokenId": "uint256 ID of the token to query the approval of"
        },
        "return": "address currently approved for the given token ID"
      },
      "isApprovedForAll(address,address)": {
        "details": "Tells whether an operator is approved by a given owner.",
        "params": {
          "operator": "operator address which you want to query the approval of",
          "owner": "owner address which you want to query the approval of"
        },
        "return": "bool whether the given operator is approved by the given owner"
      },
      "name()": {
        "details": "Gets the token name.",
        "return": "string representing the token name"
      },
      "ownerOf(uint256)": {
        "details": "Gets the owner of the specified token ID.",
        "params": {
          "tokenId": "uint256 ID of the token to query the owner of"
        },
        "return": "address currently marked as the owner of the given token ID"
      },
      "safeTransferFrom(address,address,uint256)": {
        "details": "Safely transfers the ownership of a given token ID to another address If the target address is a contract, it must implement `onERC721Received`, which is called upon a safe transfer, and return the magic value `bytes4(keccak256(\"onERC721Received(address,address,uint256,bytes)\"))`; otherwise, the transfer is reverted. Requires the msg.sender to be the owner, approved, or operator",
        "params": {
          "from": "current owner of the token",
          "to": "address to receive the ownership of the given token ID",
          "tokenId": "uint256 ID of the token to be transferred"
        }
      },
      "safeTransferFrom(address,address,uint256,bytes)": {
        "details": "Safely transfers the ownership of a given token ID to another address If the target address is a contract, it must implement `onERC721Received`, which is called upon a safe transfer, and return the magic value `bytes4(keccak256(\"onERC721Received(address,address,uint256,bytes)\"))`; otherwise, the transfer is reverted. Requires the msg.sender to be the owner, approved, or operator",
        "params": {
          "_data": "bytes data to send along with a safe transfer check",
          "from": "current owner of the token",
          "to": "address to receive the ownership of the given token ID",
          "tokenId": "uint256 ID of the token to be transferred"
        }
      },
      "setApprovalForAll(address,bool)": {
        "details": "Sets or unsets the approval of a given operator An operator is allowed to transfer all tokens of the sender on their behalf.",
        "params": {
          "approved": "representing the status of the approval to be set",
          "to": "operator address to set the approval"
        }
      },
      "supportsInterface(bytes4)": {
        "details": "See `IERC165.supportsInterface`.      * Time complexity O(1), guaranteed to always use less than 30 000 gas."
      },
      "symbol()": {
        "details": "Gets the token symbol.",
        "return": "string representing the token symbol"
      },
      "tokenByIndex(uint256)": {
        "details": "Gets the token ID at a given index of all the tokens in this contract Reverts if the index is greater or equal to the total number of tokens.",
        "params": {
          "index": "uint256 representing the index to be accessed of the tokens list"
        },
        "return": "uint256 token ID at the given index of the tokens list"
      },
      "tokenOfOwnerByIndex(address,uint256)": {
        "details": "Gets the token ID at a given index of the tokens list of the requested owner.",
        "params": {
          "index": "uint256 representing the index to be accessed of the requested tokens list",
          "owner": "address owning the tokens list to be accessed"
        },
        "return": "uint256 token ID at the given index of the tokens list owned by the requested address"
      },
      "tokenURI(uint256)": {
        "details": "Returns an URI for a given token ID. Throws if the token ID does not exist. May return an empty string.",
        "params": {
          "tokenId": "uint256 ID of the token to query"
        }
      },
      "totalSupply()": {
        "details": "Gets the total amount of tokens stored by the contract.",
        "return": "uint256 representing the total amount of tokens"
      }
    }
  },
  "userdoc": {
    "methods": {}
  }
}